:100B28007F061207B890002F1201F2000025807F7F
:100B3800007E367D6E7C01120A07E4F59153B3DF1F
:100B480043B420759102438920538ADF759102438B
:100B5800A20875910253A2FBF59175910243A20276
:100B680075910253A2FEF59175910243E501F59145
:100B7800D2AF3003FDC203900033E0FF12009D8026
:020B8800F12258
:0605F7009000191201E65C
:1005FD00E4F591F591538EF7F5915389F043890107
:10060D007B407A42790FF8900019E0FCA3E0FDA33E
:10061D00E0FEA3E0FF120141A804A905AA06AB075D
:10062D0090001FE0FEA3E0FFE4FCFD1200B6E47BAA
:10063D000CFAF9F8120141C374FF9FFF74FF9EFE7F
:10064D00E49DFDE49CFCEFE4900021EFF07B407A0B
:10065D0042790F7800900019E0FCA3E0FDA3E0FEC5
:10066D00A3E0FF120141A804A905AA06AB0790005B
:10067D001FE0FEA3E0FFE4FCFD1200B6E47B0CFAE4
:10068D00F9F8120141C374FF9FFF74FF9EFEE49DB4
:10069D00FDE49CFC78081201D390001DE07002A3CC
:1006AD00E06024900021E0F58A8F8C438810308D16
:1006BD00FD5388DF5388EF90001EE024FFF090007B
:0C06CD001DE034FFF080D2E4F58AF58CCB
:0106D90022FE
:0606DA009000221201E66F
:1006E000E4F591F591538EEFF59153890F438910FD
:1006F0007B407A42790FF8900022E0FCA3E0FDA352
:10070000E0FEA3E0FF120141A804A905AA06AB0779
:10071000900028E0FEA3E0FFE4FCFD1200B6E47BBD
:100720000CFAF9F8120141C374FF9FFF74FF9EFE9B
:10073000E49DFDE49CFCEFE490002AEFF07B407A1E
:1007400042790F7800900022E0FCA3E0FDA3E0FED8
:10075000A3E0FF120141A804A905AA06AB07900077
:1007600028E0FEA3E0FFE4FCFD1200B6E47B0CFAF7
:10077000F9F8120141C374FF9FFF74FF9EFEE49DD0
:10078000FDE49CFC78081201D3900026E07002A3DF
:10079000E0602490002AE0F58B8F8D438840308FF5
:1007A000FD53887F5388BF900027E024FFF090001E
:0707B00026E034FFF080D2C7
:0107B700221F
:060250009000001201E61F
:10025600E4F591900004E0FEA3E08EF01202230282
:10026600890001028E000402960010029E00200200
:10027600A6004002AE008002B6010002BE020000E7
:100286000002C453C98F803653C98F43C910802ECC
:1002960053C98F43C920802653C98F43C930801E56
:1002A60053C98F43C940801653C98F43C950800E26
:1002B60053C98F43C960800653C98F43C97053C859
:1002C600FEE4F59143C980F59143C9047B407A4227
:1002D600790FF8900000E0FCA3E0FDA3E0FEA3E0A8
:1002E600FF120141900008E0F8A3E0F9A3E0FAA3A9
:1002F600E0FB1200B6C006C007900004E0FEA3E0D3
:10030600FFFBAA06E4F9F8D007D006120141C3E4C0
:100316009FFFE49EFE74019DFDE49CFCEFE49000CB
:100326000CEFF07B407A42790F7800900000E0FCF9
:10033600A3E0FDA3E0FEA3E0FF120141900008E068
:10034600F8A3E0F9A3E0FAA3E0FB1200B6C006C0EA
:1003560007900004E0FEA3E0FFFBAA06E4F9F8D04C
:1003660007D006120141C3E49FFFE49EFE74019D7F
:10037600FDE49CFC78081201D3900006E07002A30D
:10038600E0602490000CE0F5CC8FCD43C80430CF5C
:10039600FD53C87F53C8FB900007E024FFF0900090
:0703A60006E034FFF080D2F5
:0103AD00222D
:0603AE0090000D1201E6B3
:1003B400E4F591900011E024FE602124FE602524E0
:1003C400FC602924F8602D24F0603124E060352499
:1003D400C06039247F703B53C4F8803653C4F8435B
:1003E400C401802E53C4F843C402802653C4F84386
:1003F400C403801E53C4F843C404801653C4F84392
:10040400C405800E53C4F843C406800653C4F8439D
:10041400C4077B407A42790F780090000DE0FCA37A
:10042400E0FDA3E0FEA3E0FF120141900014E0F818
:10043400A3E0F9A3E0FAA3E0FB1200B6C007900022
:1004440011E0FFFBE4FAF9F8D007120141C3E49F7D
:10045400FFE49EFE74019DFDE49CFCEFE490001813
:10046400EFF07B407A42790F780090000DE0FCA316
:10047400E0FDA3E0FEA3E0FF120141900014E0F8C8
:10048400A3E0F9A3E0FAA3E0FB1200B6C0079000D2
:1004940011E0FFFBE4FAF9F8D007120141C3E49F2D
:1004A400FFE49EFE74019DFDE49CFC78081201D3D8
:1004B400900012E07002A3E06037E4F59153C4EFBA
:1004C400900018E0F5C58FC6E4F59143C408E5C46F
:1004D40044EF64EF60F8E4F59153C4EFF59153C42D
:1004E400F7900013E024FFF0900012E034FFF08056
:0104F400BF48
:0104F50022E4
:1007B800E4F591EF24F9600C14600E2402700D75B5
:1007C800A638800875A630800375A630E4F591A296
:1007D800AF9202C2AF75C7AA75C755439F01A2025F
:1007E80092AFF5A775AF04F591A2AF9202C2AF75AB
:1007F800C7AA75C75543A401A20292AF85AE0B05DF
:10080800A6F591A2AF9202C2AF75C7AA75C75543A4
:10081800A401A20292AF85AE0CF591A2AF9202C2DA
:10082800AF75C7AA75C755539FFEA20292AFEF24B2
:10083800F87027E50B25E0FFE433FEE50C54017C56
:10084800002FFFEC3EFE74F12FFF74FF3EFEEF54C5
:1008580001F50CEEC313EF13F50B75C7AA75C75551
:10086800850B8475C7AA75C755850C85E4F591A2D3
:10087800AF9202C2AF75C7AA75C755539FFEA202B1
:0508880092AF5387EF61
:01088D002248
:10088E00EF24FE603E146046146064147003020987
:10089E0028240560030209527F021204F67F021219
:1008AE000953E4FF1204F6E4FF120953E4F591A292
:1008BE00AF9202C2AF75C7AA75C7555397DFA20292
:1008CE0092AF227F021204F67F02120953227F0397
:1008DE001204F67F03120953E4F591A2AF9202C2FD
:1008EE00AF75C7AA75C7555397DFA20292AF227F85
:1008FE00021204F67F021209537F041204F67F04DB
:10090E00120953E4F591A2AF9202C2AF75C7AA7550
:10091E00C7555397DFA20292AF227F021204F67FD1
:10092E00021209537F051204F67F05120953E4F5EE
:10093E0091A2AF9202C2AF75C7AA75C7555397DF82
:05094E00A20292AF229D
:1004F600EF24FE604D14606E14700302058D1470B7
:10050600030205C3240560030205F6E4F591A2AFD4
:100516009202C2AF75C7AA75C75553977FA20292BA
:10052600AFF591A2AF9202C2AF75C7AA75C7554380
:100536009740A20292AFE596447F70030205F680CB
:10054600F522E4F591A2AF9202C2AF75C7AA75C7AC
:1005560055439720A20292AFE59644DF64DF60031D
:100566000205F680F322E4F591A2AF9202C2AF75BE
:10057600C7AA75C755439710A20292AFE59644EFF6
:1005860064EF706C80F622E4F591A2AF9202C2AFDE
:1005960075C7AA75C755439780A20292AFF591A277
:1005A600AF9202C2AF75C7AA75C755439740A2025C
:1005B60092AFE59644F764F7703680F622E4F5913B
:1005C600A2AF9202C2AF75C7AA75C755439780A25C
:1005D6000292AFF591A2AF9202C2AF75C7AA75C7D4
:1005E600555397BFA20292AFE59644BF64BF60F829
:0105F60022E2
:100ABB00C200E4F591EF24FE601114602614603B34
:100ACB0014603C2405703AD2008036E4F591A2AF55
:100ADB009202C2AF75C7AA75C7555397DFA2029290
:100AEB00AF801EE4F591A2AF9202C2AF75C7AA7593
:100AFB00C7555397EFA20292AF8006D2008002D265
:100B0B0000300018E4F591A2AF9202C2AF75C7AAEC
:0C0B1B0075C75553973FA20292AFC2006D
:010B270022AB
:10095300C201E4F591A2AF9202C2AFEF24FE60118F
:1009630014603B14606514606624057064D20180D2
:1009730060E4F591A2AF9202C2AF75C7AA75C755DD
:100983005396FBA20292AFF591A2AF9202C2AF754A
:10099300C7AA75C7555396FDA20292AF8033E4F5FB
:1009A30091A2AF9202C2AF75C7AA75C75543960409
:1009B300A20292AFF591A2AF9202C2AF75C7AA7518
:1009C300C7555396FDA20292AF8006D2018002D290
:1009D3000130012BE4F591A2AF9202C2AF75C7AA11
:1009E30075C7555396FBA20292AFF591A2AF92023F
:1009F300C2AF75C7AA75C755439602A20292AFA2AA
:030A03000292AFAD
:010A060022CD
:040BF200410033008B
:0300B300020BD964
:100BD900C0E0C083C082C091D203900033E5E1F048
:090BE900D091D082D083D0E0321B
:100A070090002B1201E675910243F30175910243A1
:100A1700F40175910243F40275910253F3EF759156
:100A27000253F3F7E47B08FAF9F890002BE0FCA3F4
:100A3700E0FDA3E0FEA3E0FF12014190002FE0F8E4
:100A4700A3E0F9A3E0FAA3E0FB120141EF24FFFFC3
:100A5700EE34FFFEED34FFFDEC34FFFCEFE48FE3F3
:100A670053E4F07B08FAF9F890002BE0FCA3E0FDD3
:100A7700A3E0FEA3E0FF12014190002FE0F8A3E0FE
:100A8700F9A3E0FAA3E0FB120141EF24FFFFEE34E4
:100A9700FFFEED34FFFDEC34FFFC78081201D3EFC5
:100AA700540F42E475910243F44053F4CF75910219
:040AB70043F3802263
:100BBC0075910253F3FDE5E760067E007F0180042A
:0C0BCC007E007F00EF64024E60ECAFE1A1
:010BD80022FA
:10009D0075910253F3FB8FE1E5E730E3FB759102B8
:0400AD0053F3FB22EC
:100B8A00EF14601904702AED14600A047023759139
:100B9A000253E5FD2275910243E5022222ED14601B
:100BAA000A04700D75910253E5FE2275910243E520
:020BBA00012216
:03000000020003F8
:10000300787FE4F6D8FD9000007FFF7E03E4F0A341
:0A001300DFFCDEFA758120020058C0
:10001D00020B28E493A3F8E493A34003F68001F2C6
:10002D0008DFF48029E493A3F85407240CC8C333E4
:10003D00C4540F4420C8834004F456800146F6DFB3
:10004D00E4800B0102040810204080900BF2E47E46
:10005D00019360BCA3FF543F30E509541FFEE493A8
:10006D00A360010ECF54C025E060A840B8E493A36F
:10007D00FAE493A3F8E493A3C8C582C8CAC583CA9A
:10008D00F0A3C8C582C8CAC583CADFE9DEE780BE52
:010BF60000FE
:1000B600E88FF0A4CC8BF0A42CFCE98EF0A42CFCE9
:1000C6008AF0EDA42CFCEA8EF0A4CDA8F08BF0A467
:1000D6002DCC3825F0FDE98FF0A42CCD35F0FCEBC6
:1000E6008EF0A4FEA9F0EB8FF0A4CFC5F02ECD398B
:0F00F600FEE43CFCEAA42DCE35F0FDE43CFC22F8
:1001050075F008758200EF2FFFEE33FECD33CDCCB1
:1001150033CCC58233C5829BED9AEC99E582984034
:100125000CF582EE9BFEED9AFDEC99FC0FD5F0D611
:10013500E4CEFBE4CDFAE4CCF9A88222B800C1B93B
:100145000059BA002DEC8BF084CFCECDFCE5F0CB79
:10015500F97818EF2FFFEE33FEED33FDEC33FCEBB2
:1001650033FB10D703994004EB99FB0FD8E5E4F96D
:10017500FA227818EF2FFFEE33FEED33FDEC33FC5A
:10018500C933C910D7059BE99A4007EC9BFCE99A4E
:10019500F90FD8E0E4C9FAE4CCFB2275F010EF2F93
:1001A500FFEE33FEED33FDCC33CCC833C810D70793
:1001B5009BEC9AE899400AED9BFDEC9AFCE899F8CE
:0E01C5000FD5F0DAE4CDFBE4CCFAE4C8F92261
:1001D300E8600FECC313FCED13FDEE13FEEF13FF0A
:0301E300D8F1222E
:0C01E600ECF0A3EDF0A3EEF0A3EFF0228C
:1001F200A8828583F0D083D08212020912020912EA
:100202000209120209E473E493A3C583C5F0C5830E
:10021200C8C582C8F0A3C583C5F0C583C8C582C856
:0102220022B9
:10022300D083D082F8E4937012740193700DA3A36A
:1002330093F8740193F5828883E473740293B5F0A1
:0D024300067403936860E9A3A3A3A380D809
:00000001FF
