:1008D700E4F591F5B1F5B2F5B3F5B4759102F58983
:1008E700F58AF591F5ACF5AD7590FF753101753267
:1008F700907533037534E87F007E247DF47C001205
:10090700063BE4F590753101753290753303753404
:0D091700E8FF7E247DF4FC12063B80CC221C
:1004A800E4F591EF24F9600C14600E2402700D75C8
:1004B800A638800875A630800375A630E4F591A2A9
:1004C800AF9202C2AF75C7AA75C755439F01A20272
:1004D80092AFF5A775AF04F591A2AF9202C2AF75BE
:1004E800C7AA75C75543A401A20292AFAEAE05A62E
:1004F800F591A2AF9202C2AF75C7AA75C75543A4BA
:1005080001A20292AFADAEF591A2AF9202C2AF7551
:10051800C7AA75C755539FFEA20292AFEF24F87081
:1005280023EE25E0FFE433FEED54017C002FFFECC1
:100538003EFE74F12FFF74FF3EFEEF5401FDEEC343
:1005480013EF13FE75C7AA75C7558E8475C7AA75AC
:10055800C7558D85E4F591A2AF9202C2AF75C7AABF
:0D05680075C755539FFEA20292AF5387EF57
:010575002263
:10057600EF24FE603E1460461460641470030206A5
:10058600102405600302063A7F021203A77F0212B7
:1005960007B6E4FF1203A7E4FF1207B6E4F591A23B
:1005A600AF9202C2AF75C7AA75C7555397DFA202AD
:1005B60092AF227F021203A77F021207B6227F03A1
:1005C6001203A77F031207B6E4F591A2AF9202C207
:1005D600AF75C7AA75C7555397DFA20292AF227FA0
:1005E600021203A77F021207B67F041203A77F0435
:1005F6001207B6E4F591A2AF9202C2AF75C7AA750B
:10060600C7555397DFA20292AF227F021203A77F3C
:10061600021207B67F051203A77F051207B6E4F597
:1006260091A2AF9202C2AF75C7AA75C7555397DF9D
:05063600A20292AF22B8
:1003A700EF24FE604D14606E14700302043E147057
:1003B70003020474240560030204A7E4F591A2AFC5
:1003C7009202C2AF75C7AA75C75553977FA202920B
:1003D700AFF591A2AF9202C2AF75C7AA75C75543D1
:1003E7009740A20292AFE596447F70030204A7806C
:1003F700F522E4F591A2AF9202C2AF75C7AA75C7FD
:1004070055439720A20292AFE59644DF64DF60036D
:100417000204A780F322E4F591A2AF9202C2AF755E
:10042700C7AA75C755439710A20292AFE59644EF46
:1004370064EF706C80F622E4F591A2AF9202C2AF2E
:1004470075C7AA75C755439780A20292AFF591A2C7
:10045700AF9202C2AF75C7AA75C755439740A202AC
:1004670092AFE59644F764F7703680F622E4F5918B
:10047700A2AF9202C2AF75C7AA75C755439780A2AC
:100487000292AFF591A2AF9202C2AF75C7AA75C724
:10049700555397BFA20292AFE59644BF64BF60F879
:0104A7002232
:10086A00C200E4F591EF24FE601114602614603B87
:10087A0014603C2405703AD2008036E4F591A2AFA8
:10088A009202C2AF75C7AA75C7555397DFA20292E3
:10089A00AF801EE4F591A2AF9202C2AF75C7AA75E6
:1008AA00C7555397EFA20292AF8006D2008002D2B8
:1008BA0000300018E4F591A2AF9202C2AF75C7AA40
:0C08CA0075C75553973FA20292AFC200C1
:0108D60022FF
:1007B600C201E4F591A2AF9202C2AFEF24FE60112E
:1007C60014603B14606514606624057064D2018071
:1007D60060E4F591A2AF9202C2AF75C7AA75C7557C
:1007E6005396FBA20292AFF591A2AF9202C2AF75E9
:1007F600C7AA75C7555396FDA20292AF8033E4F59A
:1008060091A2AF9202C2AF75C7AA75C755439604A7
:10081600A20292AFF591A2AF9202C2AF75C7AA75B6
:10082600C7555396FDA20292AF8006D2018002D22E
:100836000130012BE4F591A2AF9202C2AF75C7AAAF
:1008460075C7555396FBA20292AFF591A2AF9202DD
:10085600C2AF75C7AA75C755439602A20292AFA248
:030866000292AF4C
:01086900226C
:08063B008F308E2F8D2E8C2DC7
:10064300E4F591F591538EF7F5915389F0438901C0
:100653007B407A42790FF8AF30AE2FAD2EAC2D121E
:10066300008EA804A905AA06AB07AE33AF34E4FC99
:10067300FD120003E47B0CFAF9F812008EC374FF39
:100683009FFF74FF9EFEE49DFDE49CFCEFE48F3529
:100693007B407A42790FF8AF30AE2FAD2EAC2D12DE
:1006A300008EA804A905AA06AB07AE33AF34E4FC59
:1006B300FD120003E47B0CFAF9F812008EC374FFF9
:1006C3009FFF74FF9EFEE49DFDE49CFC78081201ED
:1006D30020E5324531601B85358A8F8C4388103085
:1006E3008DFD5388DF5388EFE532153270021531E3
:0706F30080DFE4F58AF58CBD
:0106FA0022DD
:0806FB008F198E188D178C1663
:10070300E4F591F591538EEFF59153890F438910D9
:100713007B407A42790FF8AF19AE18AD17AC1612B9
:10072300008EA804A905AA06AB07AE1CAF1DE4FC06
:10073300FD120003E47B0CFAF9F812008EC374FF78
:100743009FFF74FF9EFEE49DFDE49CFCEFE48F1E7F
:100753007B407A42790FF8AF19AE18AD17AC161279
:10076300008EA804A905AA06AB07AE1CAF1DE4FCC6
:10077300FD120003E47B0CFAF9F812008EC374FF38
:100783009FFF74FF9EFEE49DFDE49CFC780812012C
:1007930020E51B451A601B851E8B8F8D43884030D7
:1007A3008FFD53887F5388BFE51B151B7002151AF5
:0207B30080DFE5
:0107B5002221
:080160008F0C8E0B8D0A8C0937
:10016800E4F591E50E850DF01201330197000101C8
:100178009C000401A4001001AC002001B40040015F
:10018800BC008001C4010001CC0200000001D25370
:10019800C98F803653C98F43C910802E53C98F43E6
:1001A800C920802653C98F43C930801E53C98F4345
:1001B800C940801653C98F43C950800E53C98F4315
:1001C800C960800653C98F43C97053C8FEE4F591CE
:1001D80043C980F59143C9047B407A42790FF8AF4F
:1001E8000CAE0BAD0AAC0912008EAB14AA13A912FF
:1001F800A811120003C006C007AE0DAF0EAB07AAC8
:1002080006E4F9F8D007D00612008EC3E49FFFE495
:100218009EFE74019DFDE49CFCEFE48F157B407A03
:1002280042790FF8AF0CAE0BAD0AAC0912008EABD9
:1002380014AA13A912A811120003C006C007AE0D14
:10024800AF0EAB07AA06E4F9F8D007D00612008E65
:10025800C3E49FFFE49EFE74019DFDE49CFC7808C6
:10026800120120E510450F601B8515CC8FCD43C8C2
:100278000430CFFD53C87F53C8FBE510151070023A
:04028800150F80DFEF
:01028C00224F
:08028D008F248E238D228C21A9
:10029500E4F591E52524FE602124FE602524FC601B
:1002A5002924F8602D24F0603124E0603524C060F5
:1002B50039247F703B53C4F8803653C4F843C401D6
:1002C500802E53C4F843C402802653C4F843C403A4
:1002D500801E53C4F843C404801653C4F843C405B0
:1002E500800E53C4F843C406800653C4F843C407BC
:1002F5007B407A42790F7800AF24AE23AD22AC2142
:1003050012008EAB2BAA2AA929A828120003C00720
:10031500AF25AB07E4FAF9F8D00712008EC3E49FC6
:10032500FFE49EFE74019DFDE49CFCEFE48F2C7BB5
:10033500407A42790FF8AF24AE23AD22AC211200EA
:100345008EAB2BAA2AA929A828120003C007AF251E
:10035500AB07E4FAF9F8D00712008EC3E49FFFE477
:100365009EFE74019DFDE49CFC7808120120E527A2
:100375004526602DE4F59153C4EF852CC58FC6F550
:100385009143C408E5C444EF64EF60F8E4F5915384
:10039500C4EFF59153C4F7E527152770021526809C
:0103A500CD8A
:0103A6002234
:03000000020924CE
:10092400787FE4F6D8FD9000007FFF7E03E4F0A317
:0A093400DFFCDEFA7581900208D79F
:10000300E88FF0A4CC8BF0A42CFCE98EF0A42CFC9C
:100013008AF0EDA42CFCEA8EF0A4CDA8F08BF0A41A
:100023002DCC3825F0FDE98FF0A42CCD35F0FCEB79
:100033008EF0A4FEA9F0EB8FF0A4CFC5F02ECD393E
:0F004300FEE43CFCEAA42DCE35F0FDE43CFC22AB
:1000520075F008758200EF2FFFEE33FECD33CDCC65
:1000620033CCC58233C5829BED9AEC99E5829840E8
:100072000CF582EE9BFEED9AFDEC99FC0FD5F0D6C5
:10008200E4CEFBE4CDFAE4CCF9A88222B800C1B9EF
:100092000059BA002DEC8BF084CFCECDFCE5F0CB2D
:1000A200F97818EF2FFFEE33FEED33FDEC33FCEB66
:1000B20033FB10D703994004EB99FB0FD8E5E4F921
:1000C200FA227818EF2FFFEE33FEED33FDEC33FC0E
:1000D200C933C910D7059BE99A4007EC9BFCE99A02
:1000E200F90FD8E0E4C9FAE4CCFB2275F010EF2F47
:1000F200FFEE33FEED33FDCC33CCC833C810D70747
:100102009BEC9AE899400AED9BFDEC9AFCE899F881
:0E0112000FD5F0DAE4CDFBE4CCFAE4C8F92214
:10012000E8600FECC313FCED13FDEE13FEEF13FFBD
:03013000D8F122E1
:10013300D083D082F8E4937012740193700DA3A35B
:1001430093F8740193F5828883E473740293B5F092
:0D015300067403936860E9A3A3A3A380D8FA
:00000001FF
