:10007E00E4F591A2AF9200C2AF75C7AA75C75543FA
:10008E009F01A20092AF1206641207371207B1C287
:10009E0001752113752288C2032004030204BDC218
:1000AE00AF200303020182752A0875AF21AF39EF25
:1000BE00F5A6E538F5A7AF2A74002FF582E43400D3
:1000CE00F583E0F5AEE4F591A2AF9200C2AF75C72D
:1000DE00AA75C75543A401A20092AFF5AFF591A240
:1000EE00AF9200C2AF75C7AA75C75543A401A2004F
:1000FE0092AFAF2A74002FF582E43400F583E065E9
:10010E00AE600280FEE59FB4430280FEAF2A74000B
:10011E002FF582E43400F583E0FFE4FCFDFEE531CB
:10012E002FF531EE3530F530ED352FF52FEC352E30
:10013E00F52E0539E53970020538E539B52C09E596
:10014E0038B52B04C203800B052AE52A64406003F0
:10015E000200B81205F5E531FFE4900048EFF0AF6C
:10016E0031AE30AD2FAC2E78081206FEEFE4A3EFC1
:10017E00F0120790900000E01207110369A00275BB
:10018E00A1024BA201E5A301A8A401B8A604E3AB0A
:10019E0001A8AE01C7B1000004B61205F512079012
:1001AE00E4F521F522C2010204B61205F5900048CD
:1001BE007427F01207900204B61205111205F5907D
:1001CE000048E52DF0A3E524F0A3E533F0A3E529DF
:1001DE00F01207900204B6A2AF9200C2AF75C7AA82
:1001EE0075C75543A501A20092AF75AEFF75AF223C
:1001FE00E4F538F539AF39EF75F080A4F5A6E53999
:10020E00AE387807C333CE33CED8F9EEF5A7E4F582
:10021E0091A2AF9200C2AF75C7AA75C75543A4018C
:10022E00A20092AF0539E53970020538E53964E070
:10023E00453870C11205F51207900204B6120583F7
:10024E001205F5900048E534F0A3E535F0A3E53648
:10025E00F0A374FFF0A3E537F0A374FFF0A3F0A3AF
:10026E00F01207900204B6900008E0F53AA3E0F50C
:10027E003BA3E0F53C90000CE0F53DA2AF9200C22E
:10028E00AF75C7AA75C75543A504A20092AF75AF47
:10029E00E2E4F5A6F5A775AEFFF591A2AF9200C206
:1002AE00AF75C7AA75C75543A401A20092AF75AF2B
:1002BE00E1F5A6F5A7853AAEF591A2AF9200C2AFD1
:1002CE0075C7AA75C75543A401A20092AF853BAE70
:1002DE0075A601F591A2AF9200C2AF75C7AA75C7F8
:1002EE005543A401A20092AF75A602853CAEF591CE
:1002FE00A2AF9200C2AF75C7AA75C75543A401A29B
:10030E000092AF75A604853DAEF591A2AF9200C2E4
:10031E00AF75C7AA75C75543A401A20092AFA2AF8D
:10032E009200C2AF75C7AA75C75553A5FBA200921E
:10033E00AF1205831205F5900048E534F0A3E535BC
:10034E00F0A3E536F0A374FFF0A3E537F0A374FF36
:10035E00F0A3F0A3F01207900204B6A2AF9200C26F
:10036E00AF75C7AA75C75543A501A20092AF75AE6A
:10037E00FF75AF22E4F538F539AF39EF75F080A48B
:10038E00F5A6E539AE387807C333CE33CED8F9EEBD
:10039E00F5A7E4F591A2AF9200C2AF75C7AA75C7D3
:1003AE005543A401A20092AF0539E5397002053814
:1003BE00E53964E0453870C1E4F531F530F52FF5D7
:1003CE002EF538F539F52BF52C90000CE0752B0039
:1003DE00F52CA3E0FEE4EE422BD203752A1075AF86
:1003EE0021AF39EFF5A6E538F5A7AF2A74002FF542
:1003FE0082E43400F583E0F5AEE4F591A2AF92000D
:10040E00C2AF75C7AA75C75543A401A20092AFF536
:10041E00AFF591A2AF9200C2AF75C7AA75C755438B
:10042E00A401A20092AFAF2A74002FF582E434002B
:10043E00F583E065AE600280FEE59FB4430280FE68
:10044E00AF2A74002FF582E43400F583E0FFE4FC5C
:10045E00FDFEE5312FF531EE3530F530ED352FF56A
:10046E002FEC352EF52E0539E53970020538E539B4
:10047E00B52C09E538B52B04C203800B052AE52AF5
:10048E00644060030203EC1205F5E531FFE49000D1
:10049E0048EFF0AF31AE30AD2FAC2E78081206FE1D
:1004AE00EFE4A3EFF0120790C204E4F532D2AF20CE
:1004BE0001232002030200A7E532C394405006E553
:1004CE00329400500AE532D3944050030200A7E460
:1004DE00F5320200A71206B1E4F591A2AF9200C266
:1004EE00AF75C7AA75C755539FFEA20092AF75C7C9
:1004FE00AA75C755539FFD75C7AA75C755439F80EB
:02050E0080FE6D
:0105100022C8
:1006640075A638E4F5A775AF04F591A2AF9200C260
:10067400AF75C7AA75C75543A401A20092AFAFAE28
:1006840075A639F5A7F591A2AF9200C2AF75C7AAB6
:1006940075C75543A401A20092AFAEAE75C7AA7543
:0C06A400C7558F8475C7AA75C7558E8591
:0106B0002227
:1006B10075A630E4F5A775AF04F591A2AF9200C21B
:1006C100AF75C7AA75C75543A401A20092AFAFAEDB
:1006D10075A631F5A7F591A2AF9200C2AF75C7AA71
:1006E10075C75543A401A20092AFAEAE75C7AA75F6
:0C06F100C7558F8475C7AA75C7558E8544
:0106FD0022DA
:1005110075AF0CE4F5A7F5A6F591A2AF9200C2AFB5
:1005210075C7AA75C75543A401A20092AF85AE2D28
:1005310075A601F591A2AF9200C2AF75C7AA75C7A2
:100541005543A401A20092AF85AE2475A602F59190
:10055100A2AF9200C2AF75C7AA75C75543A401A245
:100561000092AF85AE3375A603F591A2AF9200C29A
:10057100AF75C7AA75C75543A401A20092AF85AE56
:0205810029222D
:1005830075AFC0E4F5A6F5A7F591A2AF9200C2AF8F
:1005930075C7AA75C75543A401A20092AF85AE34AF
:1005A30075A601F591A2AF9200C2AF75C7AA75C730
:1005B3005543A401A20092AF85AE3575A602F5910D
:1005C300A2AF9200C2AF75C7AA75C75543A401A2D3
:1005D3000092AF85AE3675A604F591A2AF9200C224
:1005E300AF75C7AA75C75543A401A20092AF85AEE4
:0205F3003722AD
:1007B100E4F58AF58C438810F59143B71043A802FC
:0107C1002215
:10073700E4F59153B3BF53B4BFF59143B10453B23A
:10074700FBF59175F85075C488F59153C4DF75C6EC
:10075700FF75C5F3F59143C408F591439C01D2AFEA
:01076700226F
:1005F500E4F528F527F526F525F52AAF2A74002F09
:10060500F582E43400F583E0FFE4FCFDFEE5282FE8
:10061500F528EE3527F527ED3526F526EC3525F5B4
:1006250025052AE52AB440D3E528FFE4900040EFEC
:10063500F0AF28AE27AD26AC2578081206FEEFE40C
:10064500A3EFF0900004E004900044F0900005E072
:0F065500900045F0900044E07004A3E004F02210
:10079000E4F591F52AC2F9AF2A74402FF582E434CA
:1007A00000F583E0F59A30F9FD052AE52AB440E525
:0107B0002226
:03007B0002000E72
:10000E00C0E0C083C082C0D075D000C007C09130A0
:10001E00F814AF32053274002FF582E43400F58304
:10002E00E59AF053F8FE30F90353F8FDE532B401CA
:10003E0005C20275235AE532B4400AD20475230074
:10004E00C202753200D091D007D0D0D082D083D0EA
:02005E00E0328E
:03000B0002076881
:10076800C0E0C091E52245216010E5221522700203
:100778001521E52245217002D201E5236005D52324
:0807880002D202D091D0E03250
:030000000200609B
:10006000787FE4F6D8FD9000007FFF7E03E4F0A3E4
:0A007000DFFCDEFA75813D02007E20
:1006FE00E8600FECC313FCED13FDEE13FEEF13FFDA
:03070E00D8F122FD
:10071100D083D082F8E4937012740193700DA3A377
:1007210093F8740193F5828883E47374029368608B
:06073100EFA3A3A380DF8B
:00000001FF
