:0300630002005048
:0E005000C0917591005392FE53C87FD091323B
:10000300E4F591F5B1F5B2F5B3F5B4759102F5895F
:10001300F58AF591F5ACF5ADF59153B1FE53B2FE0A
:10002300D280F59143C80153C97F43C904F5915365
:10003300930F43932053F2F043F2034392404394CC
:0D00430040F591439B0443C804D2AF80FEFA
:10016300E4F591EF24F9600C14600924027008751A
:10017300A638800375A630E4F591A2AF9202C2AF10
:1001830075C7AA75C755439F01A20292AFF5A7751C
:10019300AF04F591A2AF9202C2AF75C7AA75C75556
:1001A30043A401A20292AFAEAE05A6F591A2AF920F
:1001B30002C2AF75C7AA75C75543A401A20292AF85
:1001C300ADAEF591A2AF9202C2AF75C7AA75C7557E
:1001D300539FFEA20292AFEF24F87023EE25E0FFB7
:1001E300E433FEED54017C002FFFEC3EFE74F12F4F
:1001F300FF74FF3EFEEF5401FDEEC313EF13FE75D4
:10020300C7AA75C7558E8475C7AA75C7558D85E46A
:10021300F591A2AF9202C2AF75C7AA75C755539F96
:08022300FEA20292AF5387EF27
:01022B0022B0
:1002C300EF24FE602014602714602D14603D240584
:1002D30070637F021200667F0212022CE4FF120099
:1002E30066E4FF80377F021200667F0202022C7FE2
:1002F300031200667F0380247F021200667F0212CE
:10030300022C7F041200667F0480117F02120066B4
:100313007F0212022C7F051200667F0512022CE475
:10032300F591A2AF9202C2AF75C7AA75C75553978D
:06033300DFA20292AF22DE
:10006600EF24FE604C14606C1470030200FA1470E6
:100076000302012F24056003020162E4F591A2AF99
:100086009202C2AF75C7AA75C75553977FA202924F
:10009600AFF591A2AF9202C2AF75C7AA75C7554315
:1000A6009740A20292AFE596447F700302016280F8
:1000B600F5E4F591A2AF9202C2AF75C7AA75C7550E
:1000C600439720A20292AFE59644DF64DF60030205
:1000D600016280F3E4F591A2AF9202C2AF75C7AA9E
:1000E60075C755439710A20292AFE59644EF64EFA9
:1000F600706A80F6E4F591A2AF9202C2AF75C7AA04
:1001060075C755439780A20292AFF591A2AF9202AE
:10011600C2AF75C7AA75C755439740A20292AFE50D
:100126009644F764F7703580F6E4F591A2AF920233
:10013600C2AF75C7AA75C755439780A20292AFF59D
:1001460091A2AF9202C2AF75C7AA75C7555397BFA2
:0D015600A20292AFE59644BF64BF60F8229C
:10033900C200E4F591EF24FE6011146022146037C5
:1003490014603424057032D200802EE4F591A2AFF6
:100359009202C2AF75C7AA75C7555397DF8012E4D9
:10036900F591A2AF9202C2AF75C7AA75C755539747
:10037900EFA20292AF8002D200300018E4F591A2F8
:10038900AF9202C2AF75C7AA75C75553973FA2026C
:0403990092AFC2005D
:01039D00223D
:10022C00C201E4F591A2AF9202C2AFEF24FE6011BD
:10023C0014602214604C14604924057047D201806C
:10024C0043E4F591A2AF9202C2AF75C7AA75C75528
:10025C005396FB8012E4F591A2AF9202C2AF75C720
:10026C00AA75C755439604A20292AFF591A2AF921C
:10027C0002C2AF75C7AA75C7555396FDA20292AFBD
:10028C008002D20130012BE4F591A2AF9202C2AFF1
:10029C0075C7AA75C7555396FBA20292AFF591A2EA
:1002AC00AF9202C2AF75C7AA75C755439602A20298
:0602BC0092AFA20292AF16
:0102C2002219
:0300000002039E5A
:10039E00787FE4F6D8FD9000007FFF7E03E4F0A3A3
:0A03AE00DFFCDEFA75812002000377
:00000001FF
