:1003DA000A493243202753656E642053544127202B
:1003EA006572726F72000A493243202753656E6440
:1003FA0020534C412B5727206572726F72000A49AD
:10040A003243202753656E64204932432048696786
:10041A006820427974652041646472657373272089
:10042A006572726F72000A493243202753656E64FF
:10043A0020493243204C6F77204279746520416409
:10044A00647265737327206572726F72000A49328B
:10045A0043202753656E6420534C412B5227206555
:10046A0072726F72000A49324320274E6F2041632D
:10047A006B27206572726F72000A49324320275235
:10048A00656164206461746127206572726F72000D
:10049A000A493243202741636B27206572726F72C3
:1004AA00000A4932432052656164206572726F7294
:1004BA002C20746573742073746F70000A49324378
:1004CA00202753656E6420486967682062797465DD
:1004DA00206164647265737327206572726F72009B
:1004EA000A493243202753656E64204C6F77206295
:1004FA00797465206164647265737327206572720A
:10050A006F72000A49324320275772697465204482
:10051A0061746127206572726F72000A4932432042
:10052A002757616974205265616479272065727260
:10053A006F72000A493243205772697465206572E6
:10054A00726F722C20746573742073746F70000A52
:10055A000A32344C43363420506167653020577272
:10056A006974652028307835352C307841412E2E33
:10057A002E292E2E2E000A0A32344C4336342050AD
:10058A006167653020526561642E2E2E000A0A3298
:10059A00344C433634205061676531205772697490
:1005AA00652028307830302C307846462E2E2E2979
:1005BA002E2E2E000A0A32344C43363420506167FC
:1005CA00653120526561642E2E2E000A0A32344C9F
:1005DA00433634205061676532205772697465204A
:1005EA0028307841412C307835352E2E2E292E2E62
:1005FA002E000A0A32344C43363420506167653281
:10060A0020526561642E2E2E000A0A32344C43367B
:10061A003420506167653320577269746520283029
:10062A007846462C307830302E2E2E292E2E2E004B
:10063A000A0A32344C4336342050616765332052FB
:10064A006561642E2E2E000A0A32344C4336342059
:10065A0050616765323535205772697465202830D4
:10066A007830462C307846302E2E2E292E2E2E000B
:10067A000A0A32344C4336342050616765323535C4
:10068A0020526561642E2E2E000A4D533531203CCE
:10069A002D2D3E2032344C4336342C20493243200F
:1006AA0044656D6F20436F646520746573742070B0
:0706BA006173732E2E2E0068
:10105700E4F59143B10843B208F59143B11043B2A7
:081067001075BE0243C04022D7
:10000300E5BD701AD20C43C01053C0F7E5C044F7E6
:0F001300600C53C0BF43C04053C0F753C0BF225F
:020830008D0831
:10083200EF75F020A4F50B85F00A43C02053C0F7F2
:10084200E5C030E3FBE5BD64086002806A75BCA0C8
:1008520053C0DF53C0F7E5C030E3FBE5BD64186069
:100862000BD20C7BFF7A0379F0020934E50AF5BC5E
:1008720053C0F7E5C030E3FBE5BD6428600BD20C42
:100882007BFF7A047908020934E50BF5BC53C0F703
:10089200E5C030E3FBE5BD6428600BD20C7BFF7A38
:1008A20004793002093443C02053C0F7E5C030E375
:1008B200FBE5BD6410600AD20C7BFF7A0379DA8013
:1008C2007153C0DF75BCA153C0F7E5C030E3FBE54F
:1008D200BD6440600AD20C7BFF7A0479578053E4EE
:1008E200F50943C00453C0F7E5C030E3FBE5BD643E
:1008F20050600AD20C7BFF7A04796F8035E5BC65C3
:1009020008600AD20C7BFF7A04798380256308FF92
:100912000509E509C3942040C953C0FB53C0F7E55C
:10092200C030E3FBE5BD6458600DD20C7BFF7A0456
:10093200799A1200E0801253C0F743C010E5C04418
:10094200EF6006120003300CF4300C0E1200037B31
:0A095200FF7A0479AB1200E0C20C3A
:01095C002278
:020A83008D08DC
:100A8500EF75F020A4F50B85F00A43C02053C0F79D
:100A9500E5C030E3FBE5BD6408600BD20C7BFF7A53
:100AA5000379DA020B5953C0DF75BCA053C0F7E5D3
:100AB500C030E3FBE5BD6418600BD20C7BFF7A0305
:100AC50079F0020B59E50AF5BC53C0F7E5C030E3F0
:100AD500FBE5BD6428600AD20C7BFF7A0479C680E9
:100AE50073E50BF5BC53C0F7E5C030E3FBE5BD642A
:100AF50028600AD20C7BFF7A0479EA8057E4F5096D
:100B05008508BC53C0F7E5C030E3FBE5BD6428604C
:100B15000AD20C7BFF7A05790D80396308FF050938
:100B2500E509C3942040D943C01053C0F7E5C0443C
:100B3500EF6008120003300CF4804343C02053C01B
:100B4500F7E5C030E3FBE5BD6408600DD20C7BFF23
:100B55007A0579251200E0802553C0DF75BCA053C6
:100B6500C0F7E5C030E3FBE5BDB418BB43C0105387
:100B7500C0F7E5C044EF6006120003300CF4300CFA
:0F0B85000E120003C20C7BFF7A05793D1200E0CF
:010B9400223E
:100C9200E4F59153B1BF43B240750C01F510750FE5
:100CA200C2750E01F50DFF7E247DF4FC12095D4331
:100CB2009802D2091210577BFF7A0579591200E087
:100CC2007D55E4FF120A837BFF7A0579801200E0EA
:100CD2007D55E4FF1208307BFF7A0579971200E018
:100CE200E4FD7F01120A837BFF7A0579BE1200E0E0
:100CF200E4FD7F011208307BFF7A0579D51200E00E
:100D02007DAA7F02120A837BFF7A0579FC1200E03A
:100D12007DAA7F021208307BFF7A0679131200E067
:100D22007DFF7F03120A837BFF7A06793A1200E085
:100D32007DFF7F031208307BFF7A0679511200E0B3
:100D42007D0F7FFF120A837BFF7A06797A1200E019
:100D52007D0F7FFF1208307BFF7A0679931200E045
:070D62005398FDC20980FE59
:100D6900E4F591EF24F9600C146009240270087508
:100D7900A638800375A630E4F591A2AF920FC2AFF1
:100D890075C7AA75C755439F01A20F92AFF5A775FD
:100D9900AF04F591A2AF920FC2AF75C7AA75C75537
:100DA90043A401A20F92AFAEAE05A6F591A2AF92F0
:100DB9000FC2AF75C7AA75C75543A401A20F92AF59
:100DC900ADAEF591A2AF920FC2AF75C7AA75C7555F
:100DD900539FFEA20F92AFEF24F87023EE25E0FF98
:100DE900E433FEED54017C002FFFEC3EFE74F12F3D
:100DF900FF74FF3EFEEF5401FDEEC313EF13FE75C2
:100E0900C7AA75C7558E8475C7AA75C7558D85E458
:100E1900F591A2AF920FC2AF75C7AA75C755539F77
:080E2900FEA20F92AF5387EF08
:010E3100229E
:100F6300EF24FE602014602714602D14603D2405D7
:100F730070637F02120B957F02120ECCE4FF120BFB
:100F830095E4FF80377F02120B957F02020ECC7F20
:100F930003120B957F0380247F02120B957F0212AD
:100FA3000ECC7F04120B957F0480117F02120B95E8
:100FB3007F02120ECC7F05120B957F05120ECCE437
:100FC300F591A2AF920FC2AF75C7AA75C7555397D4
:060FD300DFA20F92AF2225
:100B9500EF24FE604C14606C147003020C29147071
:100BA50003020C5E24056003020C91E4F591A2AFEB
:100BB500920FC2AF75C7AA75C75553977FA20F92FB
:100BC500AFF591A2AF920FC2AF75C7AA75C75543CE
:100BD5009740A20F92AFE596447F7003020C918077
:100BE500F5E4F591A2AF920FC2AF75C7AA75C755C7
:100BF500439720A20F92AFE59644DF64DF600302BE
:100C05000C9180F3E4F591A2AF920FC2AF75C7AA1C
:100C150075C755439710A20F92AFE59644EF64EF61
:100C2500706A80F6E4F591A2AF920FC2AF75C7AABC
:100C350075C755439780A20F92AFF591A2AF920F5A
:100C4500C2AF75C7AA75C755439740A20F92AFE5C6
:100C55009644F764F7703580F6E4F591A2AF920FEC
:100C6500C2AF75C7AA75C755439780A20F92AFF556
:100C750091A2AF920FC2AF75C7AA75C7555397BF5B
:0D0C8500A20F92AFE59644BF64BF60F82255
:100FD900C20DE4F591EF24FE60111460221460370C
:100FE90014603424057032D20D802EE4F591A2AF3D
:100FF900920FC2AF75C7AA75C7555397DF8012E420
:10100900F591A2AF920FC2AF75C7AA75C75553978D
:10101900EFA20F92AF8002D20D300D18E4F591A224
:10102900AF920FC2AF75C7AA75C75553973FA20FA5
:0410390092AFC20DA3
:01103D002290
:100ECC00C20EE4F591A2AF920FC2AFEF24FE6011F7
:100EDC0014602214604C14604924057047D20E80B3
:100EEC0043E4F591A2AF920FC2AF75C7AA75C7556F
:100EFC005396FB8012E4F591A2AF920FC2AF75C767
:100F0C00AA75C755439604A20F92AFF591A2AF9262
:100F1C000FC2AF75C7AA75C7555396FDA20F92AFF6
:100F2C008002D20E300E2BE4F591A2AF920FC2AF1D
:100F3C0075C7AA75C7555396FBA20F92AFF591A230
:100F4C00AF920FC2AF75C7AA75C755439602A20FD1
:060F5C0092AFA20F92AF5C
:010F6200226C
:04108700C109C10AD0
:0300230002106F59
:10106F00C091309808D20A8599255398FE3099057A
:08107F00200902C299D0913250
:03007B0002103E32
:10103E00C09130F80853F8FE859A26D20B30F90687
:09104E0020090353F8FDD0913292
:10095D008F0B8E0A8D098C08E4F591E50C14604619
:10096D00147003020A1E24026003020A8275985055
:10097D00438920438780E4F591438E10F59153C44C
:10098D00DF7B10FAF9F8AF0BAE0AAD09AC08120611
:10099D00FDAB10AA0FA90EA80D1206FDEFF404F57C
:1009AD008D438840806775985043878053C4F8E421
:1009BD00F59143C4207B10FAF9F8AF0BAE0AAD09DF
:1009CD00AC081206FDAB10AA0FA90EA80D1206FD5C
:1009DD00C3E49FFFE49EFE74019DFDE49CFC78083A
:1009ED0012078F8FC6E47B10FAF9F8AF0BAE0AAD84
:1009FD0009AC081206FDAB10AA0FA90EA80D120620
:100A0D00FDC3E49FFFE48FC5F59143C40843A810CF
:100A1D002275F85075C480E47B10FAF9F8AF0BAE6F
:100A2D000AAD09AC081206FDAB10AA0FA90EA80D50
:100A3D001206FDC3E49FFFE49EFE74019DFDE49C40
:100A4D00FC780812078F8FC6E47B10FAF9F8AF0B0C
:100A5D00AE0AAD09AC081206FDAB10AA0FA90EA87F
:100A6D000D1206FDC3E49FFFE48FC5F59143C40845
:060A7D00F591439C0122EB
:10004D00E4F591EF14600C0470103098FDAE99C278
:0C005D0098800730F8FDAE9AC2F8AF069C
:010069002274
:10006A00E4F591EF1460060470058D99228D9A22A9
:03000000020E32BB
:100E3200787FE4F6D8FD9000007FFF7E03E4F0A304
:0A0E4200DFFCDEFA758126020E8740
:100E4C00020C92E493A3F8E493A34003F68001F21E
:100E5C0008DFF48029E493A3F85407240CC8C333A7
:100E6C00C4540F4420C8834004F456800146F6DF76
:100E7C00E4800B0102040810204080901087E47E6F
:100E8C00019360BCA3FF543F30E509541FFEE4936B
:100E9C00A360010ECF54C025E060A840B8E493A332
:100EAC00FAE493A3F8E493A3C8C582C8CAC583CA5D
:100EBC00F0A3C8C582C8CAC583CADFE9DEE780BE15
:01108B000064
:1006C10075F008758200EF2FFFEE33FECD33CDCCF0
:1006D10033CCC58233C5829BED9AEC99E582984073
:1006E1000CF582EE9BFEED9AFDEC99FC0FD5F0D650
:1006F100E4CEFBE4CDFAE4CCF9A88222B800C1B97A
:100701000059BA002DEC8BF084CFCECDFCE5F0CBB7
:10071100F97818EF2FFFEE33FEED33FDEC33FCEBF0
:1007210033FB10D703994004EB99FB0FD8E5E4F9AB
:10073100FA227818EF2FFFEE33FEED33FDEC33FC98
:10074100C933C910D7059BE99A4007EC9BFCE99A8C
:10075100F90FD8E0E4C9FAE4CCFB2275F010EF2FD1
:10076100FFEE33FEED33FDCC33CCC833C810D707D1
:100771009BEC9AE899400AED9BFDEC9AFCE899F80C
:0E0781000FD5F0DAE4CDFBE4CCFAE4C8F9229F
:10078F00E8600FECC313FCED13FDEE13FEEF13FF48
:03079F00D8F1226C
:10007E00E51B240FF8E6051B22780C300702780FDB
:10008E00E475F0011207FA0207A22000EB7F2ED2D0
:10009E00008018EF540F2490D43440D4FF30040B5A
:1000AE00EF24BFB41A0050032461FFE51C60021553
:1000BE001C051FE51F7002051E30070D780CE47538
:1000CE00F0011207FAEF0207E80200267403D207C6
:1000DE008003E4C207F51B8B0C8A0D890EE4F51C18
:1000EE00F51EF51FE51C60077F201200B980F5751F
:1000FE001DFFC201C200C202C203C205C206C2086F
:10010E00120087FF700D3007057F001200CAAF1F67
:10011E00AE1E22B4255FC2D5C204120087FF24D0C2
:10012E00B40A00501A75F00A781C30D50508B6FFCF
:10013E000106C6A426F620D5047002D20380D92467
:10014E00CFB41A00EF5004C2E5D2040202CAD201A3
:10015E0080C6D20080C0D20280BCD2D580BAD20571
:10016E0080B47F201200B92002077401B51C004034
:10017E00F112007EFF1200B90200F2D208D2068000
:10018E009512007EFB12007EFA12007EF94A4B7029
:10019E0006799B7A037BFF20022EE51C602A7E00E7
:1001AE008E827583001207BB60060EEE651D70F021
:1001BE00C2D5EBC0E0EAC0E0E9C0E0EE120311D018
:1001CE00E0F9D0E0FAD0E0FB1207A2FF60AAEBC084
:1001DE00E0EAC0E0E9C0E01200B9D0E02401F9D0B5
:1001EE00E03400FAD0E0FBE51D0460DCD51DD980BB
:1001FE00877BFF7A03790DD202809C791080027979
:10020E0008C206C2088008D2D5790A8004790AC2CB
:10021E00D5E51D047002F51DE4FAFDFEFF12007E09
:10022E00FC7B0820011312007EFD7B1030000A12A9
:10023E00007EFE12007EFF7B20EC3382D592D550DD
:10024E0013C3E43000069FFFE49EFEE42001039DED
:10025E00FDE49CFCE4CBF8C201EC700CCFCECDCC0F
:10026E00E824F8F870F38017C3EF33FFEE33FEED9A
:10027E0033FDEC33FCEB33FB994002FB0FD8E9EB7B
:10028E00300105F8D0E0C448B201C0E00AEC4D4E92
:10029E004F78207B0070C2EAB51D0040BCC0E01252
:1002AE000313D0F0D0E0200104C4C0E0C4B201C0FA
:1002BE00F01200A2D0F0D5F0EB0200F212080A0103
:1002CE008F5302095801604C015C42020D4F02151A
:0F02DE0044021549017543021B5501FF4601FFFC
:1002ED004501FF4703BB5001642D01682E018B2B87
:1002FD00016C2301892003A42A01244800000183F5
:10030D003F3F3F00790AA2D5200314300509B910EB
:10031D00020404B9080104A2D520060250010420EC
:10032D0002689202B51C005034C0E07F20300319E2
:10033D007F30A20272067205500F12036AC202C20A
:10034D0006C205C2087F30800F300503E9C0E012F8
:10035D0000B9300503D0E0F9D0E0B51CCC3005175D
:10036D007F30B9100C1200B97F583004077F7880A8
:10037D0003B908031200B93002057F2D0200B97FC1
:10038D00202008F87F2B2006F322920280CF286EC2
:10039D00756C6C2900D20112007E3001F8C2017813
:1003AD001C30D50108F60201242D50434958120086
:1003BD007E2403B405004001E49003B6931200AA15
:0D03CD00743A1200AAD203751C0402020942
:1007A200BB010689828A83E0225002E722BBFE0255
:0907B200E32289828A83E4932288
:1007BB00BB010CE58229F582E5833AF583E02250F3
:1007CB0006E92582F8E622BBFE06E92582F8E2223D
:0D07DB00E58229F582E5833AF583E4932257
:1007E800BB010689828A83F0225002F722BBFE01F0
:0207F800F322EA
:1007FA00FAE6FB0808E6F925F0F618E6CA3AF62200
:10080A00D083D082F8E4937012740193700DA3A37D
:10081A0093F8740193F5828883E473740293686091
:06082A00EFA3A3A380DF91
:10002600EFB40A07740D120031740A309811A899BA
:10003600B8130CC2983098FDA899C298B811F6303A
:0700460099FDC299F5992212
:00000001FF
