:100026007F061204BEE4F59153B1BF43B240F59189
:1000360043B18053B27F750C01751080750F25F59D
:100046000EF50DFF7E367D6E7C0112007E43A810F4
:10005600D2AF7D55E4FF12000E750C00750D647568
:100066000E03750FE87F007E367D6E7C011203ED70
:0300760080E02205
:1004BE00E4F591EF24F9600C14600E2402700D75B2
:1004CE00A638800875A630800375A630E4F591A293
:1004DE00AF9205C2AF75C7AA75C755439F01A20556
:1004EE0092AFF5A775AF04F591A2AF9205C2AF75A5
:1004FE00C7AA75C75543A401A20592AFAEAE05A615
:10050E00F591A2AF9205C2AF75C7AA75C75543A4A0
:10051E0001A20592AFADAEF591A2AF9205C2AF7535
:10052E00C7AA75C755539FFEA20592AFEF24F87068
:10053E0023EE25E0FFE433FEED54017C002FFFECAB
:10054E003EFE74F12FFF74FF3EFEEF5401FDEEC32D
:10055E0013EF13FE75C7AA75C7558E8475C7AA7596
:10056E00C7558D85E4F591A2AF9205C2AF75C7AAA6
:0D057E0075C755539FFEA20592AF5387EF3E
:01058B00224D
:10058C00EF24FE603E14604614606414700302068F
:10059C0026240560030206507F021202EC7F021231
:1005AC000651E4FF1202ECE4FF120651E4F591A2AD
:1005BC00AF9205C2AF75C7AA75C7555397DFA20591
:1005CC0092AF227F021202EC7F02120651227F03AD
:1005DC001202EC7F03120651E4F591A2AF9205C210
:1005EC00AF75C7AA75C7555397DFA20592AF227F87
:1005FC00021202EC7F021206517F041202EC7F04FD
:10060C00120651E4F591A2AF9205C2AF75C7AA7557
:10061C00C7555397DFA20592AF227F021202EC7FDF
:10062C00021206517F051202EC7F05120651E4F509
:10063C0091A2AF9205C2AF75C7AA75C7555397DF84
:05064C00A20592AF229F
:1002EC00EF24FE604D14606E1470030203831470CF
:1002FC00030203B9240560030203ECE4F591A2AFF9
:10030C009205C2AF75C7AA75C75553977FA20592C0
:10031C00AFF591A2AF9205C2AF75C7AA75C7554389
:10032C009740A20592AFE596447F70030203EC80E0
:10033C00F522E4F591A2AF9205C2AF75C7AA75C7B5
:10034C0055439720A20592AFE59644DF64DF600326
:10035C000203EC80F322E4F591A2AF9205C2AF75D3
:10036C00C7AA75C755439710A20592AFE59644EFFF
:10037C0064EF706C80F622E4F591A2AF9205C2AFE7
:10038C0075C7AA75C755439780A20592AFF591A280
:10039C00AF9205C2AF75C7AA75C755439740A20562
:1003AC0092AFE59644F764F7703680F622E4F59147
:1003BC00A2AF9205C2AF75C7AA75C755439780A265
:1003CC000592AFF591A2AF9205C2AF75C7AA75C7DA
:1003DC00555397BFA20592AFE59644BF64BF60F832
:0103EC0022EE
:10079F00C203E4F591EF24FE601114602614603B50
:1007AF0014603C2405703AD2038036E4F591A2AF71
:1007BF009205C2AF75C7AA75C7555397DFA20592A9
:1007CF00AF801EE4F591A2AF9205C2AF75C7AA75AF
:1007DF00C7555397EFA20592AF8006D2038002D27E
:1007EF0003300318E4F591A2AF9205C2AF75C7AA03
:0C07FF0075C75553973FA20592AFC20387
:01080B0022CA
:10065100C204E4F591A2AF9205C2AFEF24FE60118E
:1006610014603B14606514606624057064D20480D4
:1006710060E4F591A2AF9205C2AF75C7AA75C755DF
:100681005396FBA20592AFF591A2AF9205C2AF7549
:10069100C7AA75C7555396FDA20592AF8033E4F5FD
:1006A10091A2AF9205C2AF75C7AA75C7554396040B
:1006B100A20592AFF591A2AF9205C2AF75C7AA7517
:1006C100C7555396FDA20592AF8006D2048002D28F
:1006D1000430042BE4F591A2AF9205C2AF75C7AA0D
:1006E10075C7555396FBA20592AFF591A2AF92053E
:1006F100C2AF75C7AA75C755439602A20592AFA2AC
:030701000592AFAF
:0107040022D2
:04001E00C100C1015B
:030023000208428E
:10084200C091309808D2018599155398FE309905C8
:08085200200002C299D091328E
:03007B000208294F
:10082900C09130F80853F8FE859A16D20230F906BD
:0908390020000353F8FDD09132B8
:10007E008F0B8E0A8D098C08E4F591E50C146048FF
:10008E0014700302014C240260030201BB759850E8
:10009E00438920438780E4F591438E10F59153C434
:1000AE00DF7B10FAF9F8AF0BAE0AAD09AC081202FD
:1000BE0047AB10AA0FA90EA80D120247EFF404F5D4
:1000CE008D43884043A8102275985043878053C4AF
:1000DE00F8E4F59143C4207B10FAF9F8AF0BAE0AA1
:1000EE00AD09AC08120247AB10AA0FA90EA80D124B
:1000FE000247C3E49FFFE49EFE74019DFDE49CFC59
:10010E0078081202D98FC6E47B10FAF9F8AF0BAE5D
:10011E000AAD09AC08120247AB10AA0FA90EA80D22
:10012E00120247C3E49FFFE49EFE74019DFDE49C12
:10013E00FCEFE48FC5F59143C40843A8102275F86F
:10014E005075C480E47B10FAF9F8AF0BAE0AAD0916
:10015E00AC08120247AB10AA0FA90EA80D12024747
:10016E00C3E49FFFE49EFE74019DFDE49CFC7808B1
:10017E001202D98FC6E47B10FAF9F8AF0BAE0AADB6
:10018E0009AC08120247AB10AA0FA90EA80D120255
:10019E0047C3E49FFFE49EFE74019DFDE49CFCEFCB
:0E01AE00E48FC5F59143C408F591439C0122EE
:10080C00E4F591EF14600C0470103098FDAE99C2B1
:0C081C0098800730F8FDAE9AC2F8AF06D5
:0108280022AD
:10000E00E4F591EF1460060470058D99228D9A2205
:03000B00020003ED
:07000300C091C28DD09132C3
:0803ED008F0B8E0A8D098C08AC
:1003F500A2AF9205E4F5915389F0438901F5915334
:100405008EF743A802D2AFF510F511C3E511950D8E
:10041500E510950C40030204B67B407A42790F78CB
:1004250000AF0BAE0AAD09AC08120247A804A90536
:10043500AA06AB07AE0EAF0FE4FCFD1201BCE47BD0
:100445000CFAF9F8120247C374FF9FFF74FF9EFE72
:10045500E49DFDE49CFCEFE48F8A7B407A42790FB2
:10046500F8AF0BAE0AAD09AC08120247A804A905FE
:10047500AA06AB07AE0EAF0FE4FCFD1201BCE47B90
:100485000CFAF9F8120247C374FF9FFF74FF9EFE32
:10049500E49DFDE49CFC78081202D98F8C438810FA
:1004A500308DFD5388EF0511E5117002051002042A
:0804B5001053A8FDA20592AF4F
:0104BD00221C
:07085A005388EF53A8FD22B3
:03000000020705EF
:10070500787FE4F6D8FD9000007FFF7E03E4F0A338
:0A071500DFFCDEFA75812002075AAE
:10071F00020026E493A3F8E493A34003F68001F2CA
:10072F0008DFF48029E493A3F85407240CC8C333DB
:10073F00C4540F4420C8834004F456800146F6DFAA
:10074F00E4800B010204081020408090001EE47E1C
:10075F00019360BCA3FF543F30E509541FFEE4939F
:10076F00A360010ECF54C025E060A840B8E493A366
:10077F00FAE493A3F8E493A3C8C582C8CAC583CA91
:10078F00F0A3C8C582C8CAC583CADFE9DEE780BE49
:0100220000DD
:1001BC00E88FF0A4CC8BF0A42CFCE98EF0A42CFCE2
:1001CC008AF0EDA42CFCEA8EF0A4CDA8F08BF0A460
:1001DC002DCC3825F0FDE98FF0A42CCD35F0FCEBBF
:1001EC008EF0A4FEA9F0EB8FF0A4CFC5F02ECD3984
:0F01FC00FEE43CFCEAA42DCE35F0FDE43CFC22F1
:10020B0075F008758200EF2FFFEE33FECD33CDCCAA
:10021B0033CCC58233C5829BED9AEC99E58298402D
:10022B000CF582EE9BFEED9AFDEC99FC0FD5F0D60A
:10023B00E4CEFBE4CDFAE4CCF9A88222B800C1B934
:10024B000059BA002DEC8BF084CFCECDFCE5F0CB72
:10025B00F97818EF2FFFEE33FEED33FDEC33FCEBAB
:10026B0033FB10D703994004EB99FB0FD8E5E4F966
:10027B00FA227818EF2FFFEE33FEED33FDEC33FC53
:10028B00C933C910D7059BE99A4007EC9BFCE99A47
:10029B00F90FD8E0E4C9FAE4CCFB2275F010EF2F8C
:1002AB00FFEE33FEED33FDCC33CCC833C810D7078C
:1002BB009BEC9AE899400AED9BFDEC9AFCE899F8C7
:0E02CB000FD5F0DAE4CDFBE4CCFAE4C8F9225A
:1002D900E8600FECC313FCED13FDEE13FEEF13FF03
:0302E900D8F12227
:00000001FF
