:100B200090002B7430F07F061207B0900030120155
:100B3000EA000025807F007E367D6E7C0112094B25
:100B4000E4F59153B1F753B2F7F59143B11053B2B5
:100B5000EF75910253A17F75910243A140F5917504
:100B6000910253A1DF75910243A110F59175910295
:100B700043DD01F591D2AF3000FDC200900034E0BA
:060B8000FF120BA080F142
:010B8600224C
:0605EF009000191201DE6C
:1005F500E4F591F591538EF7F5915389F04389010F
:100605007B407A42790FF8900019E0FCA3E0FDA346
:10061500E0FEA3E0FF120139A804A905AA06AB076D
:1006250090001FE0FEA3E0FFE4FCFD1200AEE47BBA
:100635000CFAF9F8120139C374FF9FFF74FF9EFE8F
:10064500E49DFDE49CFCEFE4900021EFF07B407A13
:1006550042790F7800900019E0FCA3E0FDA3E0FECD
:10066500A3E0FF120139A804A905AA06AB0790006B
:100675001FE0FEA3E0FFE4FCFD1200AEE47B0CFAF4
:10068500F9F8120139C374FF9FFF74FF9EFEE49DC4
:10069500FDE49CFC78081201CB90001DE07002A3DC
:1006A500E06024900021E0F58A8F8C438810308D1E
:1006B500FD5388DF5388EF90001EE024FFF0900083
:0C06C5001DE034FFF080D2E4F58AF58CD3
:0106D1002206
:0606D2009000221201DE7F
:1006D800E4F591F591538EEFF59153890F43891005
:1006E8007B407A42790FF8900022E0FCA3E0FDA35A
:1006F800E0FEA3E0FF120139A804A905AA06AB078A
:10070800900028E0FEA3E0FFE4FCFD1200AEE47BCD
:100718000CFAF9F8120139C374FF9FFF74FF9EFEAB
:10072800E49DFDE49CFCEFE490002AEFF07B407A26
:1007380042790F7800900022E0FCA3E0FDA3E0FEE0
:10074800A3E0FF120139A804A905AA06AB07900087
:1007580028E0FEA3E0FFE4FCFD1200AEE47B0CFA07
:10076800F9F8120139C374FF9FFF74FF9EFEE49DE0
:10077800FDE49CFC78081201CB900026E07002A3EF
:10078800E0602490002AE0F58B8F8D438840308FFD
:10079800FD53887F5388BF900027E024FFF0900026
:0707A80026E034FFF080D2CF
:0107AF002227
:060248009000001201DE2F
:10024E00E4F591900004E0FEA3E08EF012021B0292
:10025E0081000102860004028E0010029600200228
:10026E009E004002A6008002AE010002B60200000F
:10027E000002BC53C98F803653C98F43C910802EDC
:10028E0053C98F43C920802653C98F43C930801E5E
:10029E0053C98F43C940801653C98F43C950800E2E
:1002AE0053C98F43C960800653C98F43C97053C861
:1002BE00FEE4F59143C980F59143C9047B407A422F
:1002CE00790FF8900000E0FCA3E0FDA3E0FEA3E0B0
:1002DE00FF120139900008E0F8A3E0F9A3E0FAA3B9
:1002EE00E0FB1200AEC006C007900004E0FEA3E0E3
:1002FE00FFFBAA06E4F9F8D007D006120139C3E4D1
:10030E009FFFE49EFE74019DFDE49CFCEFE49000D3
:10031E000CEFF07B407A42790F7800900000E0FC01
:10032E00A3E0FDA3E0FEA3E0FF120139900008E078
:10033E00F8A3E0F9A3E0FAA3E0FB1200AEC006C0FA
:10034E0007900004E0FEA3E0FFFBAA06E4F9F8D054
:10035E0007D006120139C3E49FFFE49EFE74019D8F
:10036E00FDE49CFC78081201CB900006E07002A31D
:10037E00E0602490000CE0F5CC8FCD43C80430CF64
:10038E00FD53C87F53C8FB900007E024FFF0900098
:07039E0006E034FFF080D2FD
:0103A5002235
:0603A60090000D1201DEC3
:1003AC00E4F591900011E024FE602124FE602524E8
:1003BC00FC602924F8602D24F0603124E0603524A1
:1003CC00C06039247F703B53C4F8803653C4F84363
:1003DC00C401802E53C4F843C402802653C4F8438E
:1003EC00C403801E53C4F843C404801653C4F8439A
:1003FC00C405800E53C4F843C406800653C4F843A6
:10040C00C4077B407A42790F780090000DE0FCA382
:10041C00E0FDA3E0FEA3E0FF120139900014E0F828
:10042C00A3E0F9A3E0FAA3E0FB1200AEC007900032
:10043C0011E0FFFBE4FAF9F8D007120139C3E49F8D
:10044C00FFE49EFE74019DFDE49CFCEFE49000181B
:10045C00EFF07B407A42790F780090000DE0FCA31E
:10046C00E0FDA3E0FEA3E0FF120139900014E0F8D8
:10047C00A3E0F9A3E0FAA3E0FB1200AEC0079000E2
:10048C0011E0FFFBE4FAF9F8D007120139C3E49F3D
:10049C00FFE49EFE74019DFDE49CFC78081201CBE8
:1004AC00900012E07002A3E06037E4F59153C4EFC2
:1004BC00900018E0F5C58FC6E4F59143C408E5C477
:1004CC0044EF64EF60F8E4F59153C4EFF59153C435
:1004DC00F7900013E024FFF0900012E034FFF0805E
:0104EC00BF50
:0104ED0022EC
:040BB50041003400C7
:0300AB00020B87BE
:100B8700C0E0C083C082C091D200900034E5D9F0A4
:090B9700D091D082D083D0E0326D
:10094B0090002C1201DE75910243F1017591024367
:10095B00F20175910243F20275910253F1EF759119
:10096B000253F1F7E47B08FAF9F890002CE0FCA3B2
:10097B00E0FDA3E0FEA3E0FF120139900030E0F8A8
:10098B00A3E0F9A3E0FAA3E0FB120139EF24FFFF88
:10099B00EE34FFFEED34FFFDEC34FFFCEFE48FDBB8
:1009AB0053DCF07B08FAF9F890002CE0FCA3E0FD97
:1009BB00A3E0FEA3E0FF120139900030E0F8A3E0C2
:1009CB00F9A3E0FAA3E0FB120139EF24FFFFEE34A9
:1009DB00FFFEED34FFFDEC34FFFC78081201CBEF8A
:1009EB00540F42DC75910243F24053F2CF759102E2
:0409FB0043F1802222
:0D009D0075910253F1FDE5DF20E1FBAFD9C5
:0100AA002233
:100BA00075910253F1FB8FD9E5DF440860FA759126
:050BB0000253F1FB22DD
:1007B000E4F591EF24F9600C14600E2402700D75BD
:1007C000A638800875A630800375A630E4F591A29E
:1007D000AF9203C2AF75C7AA75C755439F01A20365
:1007E00092AFF5A775AF04F591A2AF9203C2AF75B2
:1007F000C7AA75C75543A401A20392AF85AE0B05E6
:10080000A6F591A2AF9203C2AF75C7AA75C75543AB
:10081000A401A20392AF85AE0CF591A2AF9203C2E0
:10082000AF75C7AA75C755539FFEA20392AFEF24B9
:10083000F87027E50B25E0FFE433FEE50C54017C5E
:10084000002FFFEC3EFE74F12FFF74FF3EFEEF54CD
:1008500001F50CEEC313EF13F50B75C7AA75C75559
:10086000850B8475C7AA75C755850C85E4F591A2DB
:10087000AF9203C2AF75C7AA75C755539FFEA203B7
:0508800092AF5387EF69
:010885002250
:10088600EF24FE603E14604614606414700302098F
:10089600202405600302094A7F021204EE7F021239
:1008A60009FFE4FF1204EEE4FF1209FFE4F591A24A
:1008B600AF9203C2AF75C7AA75C7555397DFA20398
:1008C60092AF227F021204EE7F021209FF227F03FB
:1008D6001204EE7F031209FFE4F591A2AF9203C260
:1008E600AF75C7AA75C7555397DFA20392AF227F8C
:1008F600021204EE7F021209FF7F041204EE7F0447
:100906001209FFE4F591A2AF9203C2AF75C7AA75AB
:10091600C7555397DFA20392AF227F021204EE7FE0
:10092600021209FF7F051204EE7F051209FFE4F5A6
:1009360091A2AF9203C2AF75C7AA75C7555397DF89
:05094600A20392AF22A4
:1004EE00EF24FE604D14606E1470030205851470C7
:1004FE00030205BB240560030205EEE4F591A2AFED
:10050E009203C2AF75C7AA75C75553977FA20392C0
:10051E00AFF591A2AF9203C2AF75C7AA75C7554387
:10052E009740A20392AFE596447F70030205EE80DA
:10053E00F522E4F591A2AF9203C2AF75C7AA75C7B3
:10054E0055439720A20392AFE59644DF64DF600324
:10055E000205EE80F322E4F591A2AF9203C2AF75CD
:10056E00C7AA75C755439710A20392AFE59644EFFD
:10057E0064EF706C80F622E4F591A2AF9203C2AFE5
:10058E0075C7AA75C755439780A20392AFF591A27E
:10059E00AF9203C2AF75C7AA75C755439740A20362
:1005AE0092AFE59644F764F7703680F622E4F59143
:1005BE00A2AF9203C2AF75C7AA75C755439780A263
:1005CE000392AFF591A2AF9203C2AF75C7AA75C7DA
:1005DE00555397BFA20392AFE59644BF64BF60F830
:0105EE0022EA
:100AB300C201E4F591EF24FE601114602614603B3B
:100AC30014603C2405703AD2018036E4F591A2AF5C
:100AD3009203C2AF75C7AA75C7555397DFA2039296
:100AE300AF801EE4F591A2AF9203C2AF75C7AA759A
:100AF300C7555397EFA20392AF8006D2018002D26B
:100B030001300118E4F591A2AF9203C2AF75C7AAF1
:0C0B130075C75553973FA20392AFC20173
:010B1F0022B3
:1009FF00C202E4F591A2AF9203C2AFEF24FE6011E1
:100A0F0014603B14606514606624057064D2028024
:100A1F0060E4F591A2AF9203C2AF75C7AA75C7552F
:100A2F005396FBA20392AFF591A2AF9203C2AF759B
:100A3F00C7AA75C7555396FDA20392AF8033E4F54D
:100A4F0091A2AF9203C2AF75C7AA75C7554396045B
:100A5F00A20392AFF591A2AF9203C2AF75C7AA7569
:100A6F00C7555396FDA20392AF8006D2028002D2E1
:100A7F000230022BE4F591A2AF9203C2AF75C7AA61
:100A8F0075C7555396FBA20392AFF591A2AF920390
:100A9F00C2AF75C7AA75C755439602A20392AFA2FC
:030AAF000392AF00
:010AB2002221
:03000000020003F8
:10000300787FE4F6D8FD9000007FFF7E03E4F0A341
:0A001300DFFCDEFA758120020058C0
:10001D00020B20E493A3F8E493A34003F68001F2CE
:10002D0008DFF48029E493A3F85407240CC8C333E4
:10003D00C4540F4420C8834004F456800146F6DFB3
:10004D00E4800B0102040810204080900BB5E47E83
:10005D00019360BCA3FF543F30E509541FFEE493A8
:10006D00A360010ECF54C025E060A840B8E493A36F
:10007D00FAE493A3F8E493A3C8C582C8CAC583CA9A
:10008D00F0A3C8C582C8CAC583CADFE9DEE780BE52
:010BB900003B
:1000AE00E88FF0A4CC8BF0A42CFCE98EF0A42CFCF1
:1000BE008AF0EDA42CFCEA8EF0A4CDA8F08BF0A46F
:1000CE002DCC3825F0FDE98FF0A42CCD35F0FCEBCE
:1000DE008EF0A4FEA9F0EB8FF0A4CFC5F02ECD3993
:0F00EE00FEE43CFCEAA42DCE35F0FDE43CFC2200
:1000FD0075F008758200EF2FFFEE33FECD33CDCCBA
:10010D0033CCC58233C5829BED9AEC99E58298403C
:10011D000CF582EE9BFEED9AFDEC99FC0FD5F0D619
:10012D00E4CEFBE4CDFAE4CCF9A88222B800C1B943
:10013D000059BA002DEC8BF084CFCECDFCE5F0CB81
:10014D00F97818EF2FFFEE33FEED33FDEC33FCEBBA
:10015D0033FB10D703994004EB99FB0FD8E5E4F975
:10016D00FA227818EF2FFFEE33FEED33FDEC33FC62
:10017D00C933C910D7059BE99A4007EC9BFCE99A56
:10018D00F90FD8E0E4C9FAE4CCFB2275F010EF2F9B
:10019D00FFEE33FEED33FDCC33CCC833C810D7079B
:1001AD009BEC9AE899400AED9BFDEC9AFCE899F8D6
:0E01BD000FD5F0DAE4CDFBE4CCFAE4C8F92269
:1001CB00E8600FECC313FCED13FDEE13FEEF13FF12
:0301DB00D8F12236
:0C01DE00ECF0A3EDF0A3EEF0A3EFF02294
:1001EA00A8828583F0D083D0821202011202011202
:1001FA000201120201E473E493A3C583C5F0C58327
:10020A00C8C582C8F0A3C583C5F0C583C8C582C85E
:01021A0022C1
:10021B00D083D082F8E4937012740193700DA3A372
:10022B0093F8740193F5828883E473740293B5F0A9
:0D023B00067403936860E9A3A3A3A380D811
:00000001FF
