:10002600200603300204C2B58002D2B52007033091
:100036000304C2928002D292200803300404C281D3
:100046008002D281200903300504C2B38002D2B3F4
:0C005600200B03300003C2A122D2A12223
:10096C00E4F59143B12053B2DFF59153E83043E8FD
:10097C0004F5F643F61043E101F55DC3E55D940320
:10098C007480948050287F027E00122AAD53E87F39
:10099C0043E84030EFFDAFC3E55D25E024B4F582BC
:1009AC00E43407F583E4F0A3EFF0055D80CD900708
:1009BC00B6E0FEA3E0FF9007B5E02FFF9007B4E090
:1009CC003EFE9007B9E02FFF9007B8E03EFE7C009A
:1009DC007D031215FB9007B4EEF0A3EFF0C3943F28
:1009EC00EE94005019E4F562756680756525F56422
:1009FC00F563FF7E367D6E7C011219708064C390A6
:100A0C0007B5E0947E9007B4E094005018E4F562CA
:100A1C00F56675654BF564F563FF7E367D6E7C017E
:100A2C00121970803DC39007B5E094BD9007B4E0F7
:100A3C0094005018E4F562F566756596F564F563F7
:100A4C00FF7E367D6E7C011219708016E4F562F51E
:100A5C00667565E1F564F563FF7E367D6E7C01128B
:100A6C001970E4F59143B30253B4FDF59153E8309A
:100A7C0043E807F5F643F68043E101F55DC3E55D18
:100A8C0094037480948050287F027E00122AAD5308
:100A9C00E87F43E84030EFFDAFC3E55D25E024B4CB
:100AAC00F582E43407F583E4F0A3EFF0055D80CD27
:100ABC009007B6E0FEA3E0FF9007B5E02FFF90078C
:100ACC00B4E03EFE9007B9E02FFF9007B8E03EFE81
:100ADC007C007D031215FB9007B4EEF0A3EFF0C37E
:100AEC00943FEE9400501A756202E4756680756549
:100AFC0025F564F563FF7E367D6E7C0112197080DE
:100B0C0067C39007B5E0947E9007B4E09400501949
:100B1C00756202E4F56675654BF564F563FF7E3628
:100B2C007D6E7C01121970803FC39007B5E094BDB7
:100B3C009007B4E094005019756202E4F56675658F
:100B4C0096F564F563FF7E367D6E7C01121970801C
:100B5C0017756202E4F5667565E1F564F563FF7E71
:100B6C00367D6E7C01121970E4F59143B30853B4D1
:100B7C00F7F59153E83043E80D759102F5994399D7
:100B8C0020F59143E101F55DC3E55D940374809418
:100B9C008050287F027E00122AAD53E87F43E84044
:100BAC0030EFFDAFC3E55D25E024B4F582E43407F6
:100BBC00F583E4F0A3EFF0055D80CD9007B6E0FE81
:100BCC00A3E0FF9007B5E02FFF9007B4E03EFE9046
:100BDC0007B9E02FFF9007B8E03EFE7C007D0312C2
:100BEC0015FB9007B4EEF0A3EFF0C3943FEE940026
:100BFC005017E4756580756425F563F562FF7E36E4
:100C0C007D6E7C01122908805EC39007B5E0947E4E
:100C1C009007B4E094005016E4F56575644BF563E9
:100C2C00F562FF7E367D6E7C011229088039C390F7
:100C3C0007B5E094BD9007B4E094005016E4F56558
:100C4C00756496F563F562FF7E367D6E7C01122924
:100C5C00088014E4F5657564E1F563F562FF7E3692
:100C6C007D6E7C01122908E4F59143B31053B4EF67
:100C7C00F59153E83043E80E759102F5994399408C
:100C8C00F59143E101F55DC3E55D940374809480B7
:100C9C0050287F027E00122AAD53E87F43E8403093
:100CAC00EFFDAFC3E55D25E024B4F582E43407F530
:100CBC0083E4F0A3EFF0055D80CD9007B6E0FEA3D2
:100CCC00E0FF9007B5E02FFF9007B4E03EFE9007E1
:100CDC00B9E02FFF9007B8E03EFE7C007D031215B3
:100CEC00FB9007B4EEF0A3EFF0C3943FEE940050EA
:100CFC0017E4756580756425F563F562FF7E367DB6
:100D0C006E7C011227C0805EC39007B5E0947E9084
:100D1C0007B4E094005016E4F56575644BF563F583
:100D2C0062FF7E367D6E7C011227C08039C390072E
:100D3C00B5E094BD9007B4E094005016E4F56575E9
:100D4C006496F563F562FF7E367D6E7C011227C0DA
:100D5C008014E4F5657564E1F563F562FF7E367D1C
:100D6C006E7C011227C0759102438910538AEFE4FF
:100D7C00F59153E83043E80C759102F599439910BD
:100D8C00F59143E101F55DC3E55D940374809480B6
:100D9C0050287F027E00122AAD53E87F43E8403092
:100DAC00EFFDAFC3E55D25E024B4F582E43407F52F
:100DBC0083E4F0A3EFF0055D80CD9007B6E0FEA3D1
:100DCC00E0FF9007B5E02FFF9007B4E03EFE9007E0
:100DDC00B9E02FFF9007B8E03EFE7C007D031215B2
:100DEC00FB9007B4EEF0A3EFF0C3943FEE940050E9
:100DFC0016E4756580756425F563F562FF7E367DB6
:100E0C006E7C0112286422C39007B5E0947E900793
:100E1C00B4E094005015E4F56575644BF563F56228
:100E2C00FF7E367D6E7C0112286422C39007B5E0EC
:100E3C0094BD9007B4E094005015E4F56575649684
:100E4C00F563F562FF7E367D6E7C0112286422E428
:100E5C00F5657564E1F563F562FF7E367D6E7C01A8
:030E6C00122864E5
:010E6F002260
:101CFF00E4FDFC74002DF58274033CF583E4F0746D
:101D0F00802DF58274043CF583E4F074002DF58288
:101D1F0074053CF583E4F074A02DF58274053CF551
:101D2F0083E4F00DBD00010CED64804C70C5E4FC44
:101D3F00FD74802DF58274053CF583E4F074202D3D
:101D4F00F58274063CF583E4F074402DF582740639
:101D5F003CF583E4F074602DF58274063CF583E462
:101D6F00F00DBD00010CED64204C70C5E4FCFD745A
:101D7F00002DF58274003CF583E4F074002DF5829C
:101D8F0074013CF583E4F074002DF58274023CF588
:101D9F0083E4F074802DF58274033CF583E4F00D39
:101DAF00BD00010CE4B505C7ECB401C3E4FCFDAE06
:101DBF0004ED7802C333CE33CED8F9FF2494F582E5
:101DCF0074063EF583E4F0A3F074962FF582740643
:101DDF003EF583E4F0A3F00DBD00010CED64404C23
:101DEF0070CDE4FCFDED25E0FFEC33FE74942FF590
:101DFF008274073EF583E4F0A3F00DBD00010CEDF6
:051E0F0064104C70E0BE
:011E140022AB
:1017C3007F061223FEE4F59143B12053B2DFF59176
:1017D30043B30253B4FDF59143B30853B4F7F59102
:1017E30043B31053B4EF759102438910538AEFF555
:1017F3009143AC1053ADEFF59143B38053B47FF5F0
:101803009143AC0153ADFE7591025389FD438A02A6
:10181300F59153ACDF43AD20F59153B3FB43B404CF
:10182300F59153B1FD43B202F59153ACF743AD08C3
:10183300D2A1D2B5D292D281D2B3F59153B1BF43E3
:10184300B240F59143B18053B27FF59153B3FE4358
:10185300B401F59143B10153B2FEF59153B1F7438E
:10186300B208F59143B11053B2EFF59153B3DF438F
:10187300B420759102438920538ADF7591025389FD
:10188300F7438A08759102438904538AFB759102D1
:1018930043A10875910243A104F59175910243A1F7
:1018A3000275910243A101F59175910253A17F75D0
:1018B300910243A140F59175910253A1DF75910205
:1018C30043A110F59175910243A20875910253A2A9
:1018D300FBF59175910243A20275910253A2FEF5A5
:1018E3009175910253A27F75910243A240F59175C0
:1018F300910253A2DF75910243A210F59112096C74
:10190300121CFFD20143A810E4F591439C01759189
:101913000243DD01F59175910243E501F59175915E
:101923000243ED01F591F5915389F0438901F59156
:10193300538EF7758CFC758A1743A802438810757C
:10194300910243DD0175910243E50175910243ED77
:101953000175910253F1FB75910253F3FB759102EB
:0D19630053F5FBF591D2AF12002680FB2258
:1023FE00E4F591EF24F9600C14600E2402700D7553
:10240E00A638800875A630800375A630E4F591A233
:10241E00AF9218C2AF75C7AA75C755439F01A218D0
:10242E0092AFF5A775AF04F591A2AF9218C2AF7532
:10243E00C7AA75C75543A401A21892AFAEAE05A6A2
:10244E00F591A2AF9218C2AF75C7AA75C75543A42E
:10245E0001A21892AFADAEF591A2AF9218C2AF75B0
:10246E00C7AA75C755539FFEA21892AFEF24F870F6
:10247E0023EE25E0FFE433FEED54017C002FFFEC4C
:10248E003EFE74F12FFF74FF3EFEEF5401FDEEC3CE
:10249E0013EF13FE75C7AA75C7558E8475C7AA7537
:1024AE00C7558D85E4F591A2AF9218C2AF75C7AA34
:0D24BE0075C755539FFEA21892AF5387EFCC
:0124CB0022EE
:1024CC00EF24FE603E146046146064147003022511
:1024DC0066240560030225907F0212213C7F0212C4
:1024EC00270CE4FF12213CE4FF12270CE4F591A227
:1024FC00AF9218C2AF75C7AA75C7555397DFA2180C
:10250C0092AF227F0212213C7F0212270C227F0302
:10251C0012213C7F0312270CE4F591A2AF9218C252
:10252C00AF75C7AA75C7555397DFA21892AF227F14
:10253C000212213C7F0212270C7F0412213C7F04E3
:10254C0012270CE4F591A2AF9218C2AF75C7AA7509
:10255C00C7555397DFA21892AF227F0212213C7FFE
:10256C000212270C7F0512213C7F0512270CE4F583
:10257C0091A2AF9218C2AF75C7AA75C7555397DF12
:05258C00A21892AF222D
:10213C00EF24FE604D14606E1470030221D31470F2
:10214C00030222092405600302223CE4F591A2AFAC
:10215C009218C2AF75C7AA75C75553977FA218922C
:10216C00AFF591A2AF9218C2AF75C7AA75C7554308
:10217C009740A21892AFE596447F700302223C80F0
:10218C00F522E4F591A2AF9218C2AF75C7AA75C734
:10219C0055439720A21892AFE59644DF64DF6003A5
:1021AC0002223C80F322E4F591A2AF9218C2AF75E3
:1021BC00C7AA75C755439710A21892AFE59644EF7E
:1021CC0064EF706C80F622E4F591A2AF9218C2AF66
:1021DC0075C7AA75C755439780A21892AFF591A2FF
:1021EC00AF9218C2AF75C7AA75C755439740A218CE
:1021FC0092AFE59644F764F7703680F622E4F591D9
:10220C00A2AF9218C2AF75C7AA75C755439780A2E3
:10221C001892AFF591A2AF9218C2AF75C7AA75C745
:10222C00555397BFA21892AFE59644BF64BF60F8B0
:01223C00227F
:102A4000C216E4F591EF24FE601114602614603B79
:102A500014603C2405703AD2168036E4F591A2AF9A
:102A60009218C2AF75C7AA75C7555397DFA21892BF
:102A7000AF801EE4F591A2AF9218C2AF75C7AA75D8
:102A8000C7555397EFA21892AF8006D2168002D294
:102A900016301618E4F591A2AF9218C2AF75C7AA06
:0C2AA00075C75553973FA21892AFC2169D
:012AAC002207
:10270C00C217E4F591A2AF9218C2AFEF24FE60118C
:10271C0014603B14606514606624057064D21780E5
:10272C0060E4F591A2AF9218C2AF75C7AA75C755F0
:10273C005396FBA21892AFF591A2AF9218C2AF7547
:10274C00C7AA75C7555396FDA21892AF8033E4F50E
:10275C0091A2AF9218C2AF75C7AA75C7554396041C
:10276C00A21892AFF591A2AF9218C2AF75C7AA7515
:10277C00C7555396FDA21892AF8006D2178002D28D
:10278C001730172BE4F591A2AF9218C2AF75C7AAF8
:10279C0075C7555396FBA21892AFF591A2AF92183C
:1027AC00C2AF75C7AA75C755439602A21892AFA2BD
:0327BC001892AFC1
:0127BF0022F7
:1000BE00C106C107C108C109C181C10AC102C1037C
:1000CE00C104C105C10060800300000000000000F3
:1000DE000000000000000000000000000000000012
:1000EE000000000000000000000000000000000002
:1000FE0000000000000000000000000000000000F2
:10010E0000000000000000000000000000000000E1
:10011E0000000000000000000000000000000000D1
:10012E0000000000000000000000000000000000C1
:10013E0000000000000000000000000000000000B1
:10014E00000000000000000000006020058000009C
:10015E000000000000000000000000000000000091
:10016E0000000000000000000000000000006080A1
:10017E0004800000000000000000000000000000ED
:10018E000000000000000000000000000000000061
:10019E000000000000000000000000000000000051
:1001AE000000000000000000000000000000000041
:1001BE000000000000000000000000000000000031
:1001CE000000000000000000000000000000000021
:1001DE000000000000000000000000000000000011
:1001EE000000000000000000000000000000000001
:1001FE00000060200620000000000000000000004B
:10020E0000000000000000000000000000000000E0
:10021E0000000000000060800500000000000000EB
:10022E0000000000000000000000000000000000C0
:10023E0000000000000000000000000000000000B0
:10024E0000000000000000000000000000000000A0
:10025E000000000000000000000000000000000090
:10026E000000000000000000000000000000000080
:10027E000000000000000000000000000000000070
:10028E000000000000000000000000000000000060
:10029E00000000000000000000006020064000008A
:1002AE000000000000000000000000000000000040
:1002BE000000000000000000000000000000608050
:1002CE0005A000000000000000000000000000007B
:1002DE000000000000000000000000000000000010
:1002EE000000000000000000000000000000000000
:1002FE0000000000000000000000000000000000F0
:10030E0000000000000000000000000000000000DF
:10031E0000000000000000000000000000000000CF
:10032E0000000000000000000000000000000000BF
:10033E0000000000000000000000000000000000AF
:10034E0000006020066000000000000000000000B9
:10035E00000000000000000000000000000000008F
:10036E000000000000006100069400000000000084
:10037E00000000000000000000000000000000006F
:10038E00000000000000000000000000000000005F
:10039E00000000000000000000000000000000004F
:1003AE00000000000000000000000000000000003F
:1003BE00000000000000000000000000000000002F
:1003CE00000000000000000000000000000000001F
:1003DE00000000000000000000000000000000000F
:1003EE0000000000000000000000000000000000FF
:1003FE0000000000000000000000000000000000EF
:10040E0000000000000000000000000000000000DE
:10041E0000000000000000000000000000000000CE
:10042E0000000000000000000000000000000000BE
:10043E0000000000000000000000000000000000AE
:10044E00000000000000000000000000000000009E
:10045E00000000000000000000000000000000008E
:10046E000000000000000000000060200794000063
:10047E00000000000000000000000000000000006E
:10048E0000000000000000000000000000006100FD
:10049E00000000000000000000000000000000004E
:1004AE00000000000000000000000000000000003E
:1004BE00000000000000000000000000000000002E
:1004CE00000000000000000000000000000000001E
:1004DE00000000000000000000000000000000000E
:1004EE0000000000000000000000000000000000FE
:1004FE0000000000000000000000000000000000EE
:10050E0000000000000000000000000000000000DD
:10051E0000000000000000000000000000000000CD
:10052E0000000000000000000000000000000000BD
:10053E0000000000000000000000000000000000AD
:10054E00000000000000000000000000000000009D
:10055E00000000000000000000000000000000008D
:10056E00000000000000000000000000000000007D
:10057E00000000000000000000000000000000006D
:10058E00000000000000000000000000000000005D
:10059E0000006100010000000000000000000000EB
:1005AE00000000000000000000000000000000003D
:1005BE00000000000000000000000000000000002D
:1005CE00000000000000000000000000000000001D
:1005DE00000000000000000000000000000000000D
:1005EE0000000000000000000000000000000000FD
:1005FE0000000000000000000000000000000000ED
:10060E0000000000000000000000000000000000DC
:10061E0000000000000000000000000000000000CC
:10062E0000000000000000000000000000000000BC
:10063E0000000000000000000000000000000000AC
:10064E00000000000000000000000000000000009C
:10065E00000000000000000000000000000000008C
:10066E00000000000000000000000000000000007C
:10067E00000000000000000000000000000000006C
:10068E00000000000000000000000000000000005C
:10069E0000000000000061000200000000000000E9
:1006AE00000000000000000000000000000000003C
:1006BE00000000000000000000000000000000002C
:1006CE00000000000000000000000000000000001C
:1006DE00000000000000000000000000000000000C
:1006EE0000000000000000000000000000000000FC
:1006FE0000000000000000000000000000000000EC
:10070E0000000000000000000000000000000000DB
:10071E0000000000000000000000000000000000CB
:10072E0000000000000000000000000000000000BB
:10073E0000000000000000000000000000000000AB
:10074E00000000000000000000000000000000009B
:10075E00000000000000000000000000000000008B
:10076E00000000000000000000000000000000007B
:10077E00000000000000000000000000000000006B
:10078E00000000000000000000000000000000005B
:10079E000000000000000000000061000380000067
:1007AE00000000000000000000000000000000003B
:1007BE00000000000000000000000000000000002B
:1007CE00000000000000000000000000000000001B
:1007DE00000000000000000000000000000000000B
:1007EE0000000000000000000000000000000000FB
:1007FE0000000000000000000000000000000000EB
:10080E0000000000000000000000000000000000DA
:10081E0000000000000000000000000000000000CA
:10082E0000000000000000000000000000000000BA
:10083E0000000000000000000000000000000000AA
:10084E00000000000000000000000000000000009A
:10085E00000000000000000000000000000000008A
:10086E00000000000000000000000000000000007A
:10087E00000000000000000000000000000000006A
:10088E00000000000000000000000000000000005A
:10089E000000000000000000000000000000012623
:1008AE00000235000002380000023B0000023D004D
:1008BE0000013F000125000124004106830041068E
:1008CE00820042068C0000420684000042068E0022
:1008DE000042068600004206900000420688000094
:1008EE00420692000042068A0000012F00012700F6
:1008FE00013300012B0001300001280001340001FA
:10090E002C00013100012900013700012D000132B8
:10091E0000012A00013A00012E00024200004206A8
:0B092E008000000140000344000000B6
:0300230002124F77
:10124F00C0E0C0F0C083C082C0D075D000C000C065
:10125F0002C004C005C006C007C091759100209858
:10126F0003021367755300D20C300117E54465452F
:10127F006005E544B546058544418007E545B5461B
:10128F0002F541E54124FE604314607014700302BF
:10129F0013382403600302136230060302136275CE
:1012AF0091007400252FF582E43403F583E599F05E
:1012BF00052FE52F547FF52FB52705D206021362B0
:1012CF00300A0302136243F802021362300703026B
:1012DF00136275910074802530F582E43404F58330
:1012EF00E599F075910243DD027591000530E53007
:1012FF00547FF5306528705BD207805720085475EE
:10130F00910074002531F582E43405F583E599F0F9
:10131F0075910243E5027591000531E531547FF572
:10132F00316529702ED208802A2009277591007403
:10133F00A02532F582E43405F583E599F075910225
:10134F0043ED027591000532E532547FF532B52A2F
:10135F0002D209C2015398FE2099030215E2539855
:10136F00FD3011030215E2755800E5434542600355
:10137F00021428900682E025E02494F582E43407D5
:10138F00F583E0FEA3E0FF4E700302142890068061
:10139F00E0FCA3E0FDC39FEC9E503AE004F0700622
:1013AF00900680E004F075910090068AE0FEA3E0BD
:1013BF002480F58274033EF583E0F59990068AE464
:1013CF0075F001121650AFF090068AE4F0A3EFF01B
:1013DF00C2050215E2900682E0FF25E02494F58213
:1013EF00E43407F583E0FAA3E06D7002EC6A600362
:1013FF000215E2900680F0A3F0EF25E02494F58229
:10140F00E43407F583E4F0A3F0900682E004F0548F
:10141F000FF0C200D2110215E2E52425E025E024E9
:10142F0094F582E43406F583E0FEA3E0FFEE60035B
:10143F000215E2EF24FE70030214DD14700302158F
:10144F0063240260030215E2E52425E025E02496DB
:10145F00F582E43406F583E0FCA3E0FDD39543EC7D
:10146F00954240370543E543700205427591009060
:10147F000684E0FEA3E02400F58274003EF583E0CD
:10148F00F599900684E475F001121650AFF09006AE
:10149F0084E4F0A3EFF0C2020215E2ED654370039E
:1014AF00EC654260030215E2F542F543E52425E0C1
:1014BF0025E02494F582E43406F583E4F0A3F005E7
:1014CF0024E524543FF524C20BD2110215E2E52482
:1014DF0025E025E02496F582E43406F583E0FCA3AD
:1014EF00E0FDD39543EC954240370543E543700249
:1014FF000542759100900686E0FEA3E02400F58278
:10150F0074013EF583E0F599900686E475F00112BB
:10151F001650AFF0900686E4F0A3EFF0C203021569
:10152F00E2ED65437003EC654260030215E2F5429C
:10153F00F543E52425E025E02494F582E43406F50F
:10154F0083E4F0A3F00524E524543FF524C20BD225
:10155F00110215E2E52425E025E02496F582E43416
:10156F0006F583E0FCA3E0FDD39543EC95424036AE
:10157F000543E54370020542759100900688E0FE31
:10158F00A3E02400F58274023EF583E0F5999006FE
:10159F0088E475F001121650AFF0900688E4F0A3BE
:1015AF00EFF0C204802DEDB54329ECB5422575420D
:1015BF0000754300E52425E025E02494F582E4340A
:1015CF0006F583E4F0A3F00524E524543FF524C287
:1015DF000BD211D091D007D006D005D004D002D0B5
:0C15EF0000D0D0D082D083D0F0D0E03209
:03007B0002223D21
:10223D00C0E0C0F0C083C082C0D075D000C000C067
:10224D0006C007C09175910030F86C755400D20D21
:10225D00200261200B5E75910090068CE0FEA3E0DC
:10226D002400F58274003EF583E59AF090068CE427
:10227D0075F001121650AFF090068CE4F0A3EFF05C
:10228D000536E53670020535753500F53690068450
:10229D00E0FEA3E0FF90068CE06E7003A3E06F609C
:1022AD0006E5364535700DD202E5364535700575B6
:1022BD003501F53653F8FE30F953C20A53F8FDE5F2
:1022CD0033652B601F20121C7480252BF582E4349E
:1022DD0005F583E0B5270D052BE52B541FF52B7563
:1022ED005900D212200606E527652F602020121D09
:1022FD00D20A75910074002527F582E43403F58325
:10230D00E0F59A0527E527547FF527C206D091D031
:10231D0007D006D000D0D0D082D083D0F0D0E0321C
:0300AB00021E151D
:101E1500C0E0C0F0C083C082C0D075D000C000C093
:101E250006C007C091759102E5DE30E07175550079
:101E3500D20E200363200B6075910290068EE0FEA2
:101E4500A3E02400F58274013EF583E5D9F0900600
:101E55008EE475F001121650AFF090068EE4F0A3F3
:101E6500EFF00539E53970020538753800F5399018
:101E75000686E0FEA3E0FF90068EE06E7003A3E009
:101E85006F6006E53945387015D203E53945387078
:101E95000D753801F539800675910285D926E5DE7F
:101EA50030E16475910253F1FB75910253DDFDE557
:101EB50034652C60252013227420252CF582E4340A
:101EC50006F583E0B5280D052CE52C541FF52C757A
:101ED5005A00D21375910243DD02200706E52865F5
:101EE50030602420132175910274802528F582E441
:101EF5003404F583E0F5D90528E528547FF528C293
:101F05000775910243DD02759100D091D007D00687
:0D1F1500D000D0D0D082D083D0F0D0E03208
:0300B300021F2207
:101F2200C0E0C0F0C083C082C0D075D000C000C085
:101F320006C007C091759102E5E630E07175560062
:101F4200D20F200463200B60759102900690E0FE90
:101F5200A3E02400F58274023EF583E5E1F09006E9
:101F620090E475F001121650AFF0900690E4F0A3E1
:101F7200EFF0053CE53C7002053B753B00F53C90FB
:101F82000688E0FEA3E0FF900690E06E7003A3E0F7
:101F92006F6006E53C453B7015D204E53C453B705D
:101FA2000D753B01F53C800675910285E126E5E65B
:101FB20030E16475910253F3FB75910253E5FDE53F
:101FC20037652D60252014227440252DF582E434D6
:101FD20006F583E0B5290D052DE52D541FF52D7568
:101FE2005B00D21475910243E502200806E52965DB
:101FF20031602420142175910274002529F582E4B0
:102002003405F583E0F5E10529E529547FF529C278
:102012000875910243E502759100D091D007D00670
:0D202200D000D0D0D082D083D0F0D0E032FA
:0300BB0002202FF1
:10202F00C0E0C0F0C083C082C0D075D000C000C077
:10203F0006C007C091759102E5EE30E0717557004B
:10204F00D210200563200060759102900692E0FE89
:10205F00A3E02480F58274033EF583E5E9F0900652
:10206F0092E475F001121650AFF0900692E4F0A3CF
:10207F00EFF0053EE53E7002053D753D00F53E90E3
:10208F00068AE0FEA3E0FF900692E06E7003A3E0E5
:10209F006F6006E53E453D7015D205E53E453D7046
:1020AF000D753D01F53E800675910285E926E5EE39
:1020BF0030E16475910253F5FB75910253EDFDE527
:1020CF003A652E60252015227460252EF582E434A2
:1020DF0006F583E0B52A0D052EE52E541FF52E7556
:1020EF005C00D21575910243ED02200906E52A65C1
:1020FF0032602420152175910274A0252AF582E4FF
:10210F003405F583E0F5E9052AE52A547FF52AC25F
:10211F000975910243ED02759100D091D007D00659
:0D212F00D000D0D0D082D083D0F0D0E032EC
:102B1200EF14600904700BE4F5918D9922E4F591AC
:032B22008D9A2267
:10000E007591028FD9E5DF30E3FB75910253F1FB59
:04001E00E4F5912252
:100062007591028FE1E5E730E3FB75910253F3FBF3
:04007200E4F59122FE
:102AFE007591028FE9E5EF30E3FB75910253F5FB1B
:042B0E00E4F5912237
:101970008F618E608D5F8C5EE4F591E56214604846
:10198000147003021A4324026003021AB7759850B8
:10199000438920438780E4F591438E10F59153C429
:1019A000DF7B10FAF9F8AF61AE60AD5FAC5E121686
:1019B000F1AB66AA65A964A8631216F1EFF404F509
:1019C0008D43884043A8102275985043878053C4A4
:1019D000F8E4F59143C4207B10FAF9F8AF61AE60EA
:1019E000AD5FAC5E1216F1AB66AA65A964A863127E
:1019F00016F1C3E49FFFE49EFE74019DFDE49CFC90
:101A000078081217838FC6E47B10FAF9F8AF61AE3D
:101A100060AD5FAC5E1216F1AB66AA65A964A863FF
:101A20001216F1C3E49FFFE49EFE74019DFDE49C49
:101A3000FCEFE48FC5F59143C408F591539CFD4339
:101A4000A8102275F85053C4F8E47B10FAF9F8AFE7
:101A500061AE60AD5FAC5E1216F1AB66AA65A964BB
:101A6000A8631216F1C3E49FFFE49EFE74019DFD7E
:101A7000E49CFC78081217838FC6E47B10FAF9F80F
:101A8000AF61AE60AD5FAC5E1216F1AB66AA65A940
:101A900064A8631216F1C3E49FFFE49EFE74019DE7
:101AA000FDE49CFCEFE48FC5F591539CFDF591435B
:081AB000C408F591439C0122DA
:102908008F618E608D5F8C5E75910243F1017591C8
:102918000243F20175910243F20275910253F1EFFD
:1029280075910253F1F7E47B08FAF9F8AF61AE60EC
:10293800AD5FAC5E1216F1AB65AA64A963A862121A
:1029480016F1EF24FFFFEE34FFFEED34FFFDEC340B
:10295800FFFCEFE48FDB53DCF07B08FAF9F8AF619A
:10296800AE60AD5FAC5E1216F1AB65AA64A963A850
:10297800621216F1EF24FFFFEE34FFFEED34FFFD87
:10298800EC34FFFC7808121783EF540F42DC759182
:0E2998000243F24053F2CF75910243F18022C8
:1027C0008F618E608D5F8C5E75910243F301759110
:1027D0000243F40175910243F40275910253F3EF41
:1027E00075910253F3F7E47B08FAF9F8AF61AE6034
:1027F000AD5FAC5E1216F1AB65AA64A963A8621264
:1028000016F1EF24FFFFEE34FFFEED34FFFDEC3454
:10281000FFFCEFE48FE353E4F07B08FAF9F8AF61D3
:10282000AE60AD5FAC5E1216F1AB65AA64A963A899
:10283000621216F1EF24FFFFEE34FFFEED34FFFDD0
:10284000EC34FFFC7808121783EF540F42E47591C3
:102850000243F44053F4CF75910243F380E4F591C1
:0428600043C4082243
:102864008F618E608D5F8C5E75910243F501759169
:102874000243F60175910243F60275910253F5EF96
:1028840075910253F5F7E47B08FAF9F8AF61AE608D
:10289400AD5FAC5E1216F1AB65AA64A963A86212BF
:1028A40016F1EF24FFFFEE34FFFEED34FFFDEC34B0
:1028B400FFFCEFE48FEB53ECF07B08FAF9F8AF611F
:1028C400AE60AD5FAC5E1216F1AB65AA64A963A8F5
:1028D400621216F1EF24FFFFEE34FFFEED34FFFD2C
:1028E400EC34FFFC7808121783EF540F42EC759117
:1028F4000243F64053F6CF75910243F580E4F59117
:0429040043C408229E
:102AE100E4F591EF14600C0470103098FDAE99C2BA
:0C2AF10098800730F8FDAE9AC2F8AF06DE
:012AFD0022B6
:082591008F6A8E698D688C676A
:10259900E4F591F591538EF7F5915389F04389014B
:1025A9007B407A42790FF8AF6AAE69AD68AC6712C1
:1025B90016F1A804A905AA06AB07AE6DAF6EE4FC37
:1025C900FD121666E47B0CFAF9F81216F1C374FFD2
:1025D9009FFF74FF9EFEE49DFDE49CFCEFE48F6F7A
:1025E9007B407A42790FF8AF6AAE69AD68AC671281
:1025F90016F1A804A905AA06AB07AE6DAF6EE4FCF7
:10260900FD121666E47B0CFAF9F81216F1C374FF91
:102619009FFF74FF9EFEE49DFDE49CFC7808121761
:1026290083E56C456B601B856F8A8F8C43881030FE
:102639008DFD5388DF5388EFE56C156C7002156BBF
:0726490080DFE4F58AF58C47
:012650002267
:082651008F738E728D718C7085
:10265900E4F591F591538EEFF59153890F43891064
:102669007B407A42790FF8AF73AE72AD71AC7012DC
:1026790016F1A804A905AA06AB07AE76AF77E4FC64
:10268900FD121666E47B0CFAF9F81216F1C374FF11
:102699009FFF74FF9EFEE49DFDE49CFCEFE48F78B0
:1026A9007B407A42790FF8AF73AE72AD71AC70129C
:1026B90016F1A804A905AA06AB07AE76AF77E4FC24
:1026C900FD121666E47B0CFAF9F81216F1C374FFD1
:1026D9009FFF74FF9EFEE49DFDE49CFC78081217A1
:1026E90083E5754574601B85788B8F8D43884030F1
:1026F9008FFD53887F5388BFE57515757002157472
:0227090080DF6F
:01270B0022AB
:081AB8008F0B8E0A8D098C08CA
:101AC000E4F591E50D850CF01217961AEF00011A56
:101AD000F400041AFC00101B0400201B0C00401B27
:101AE0001400801B1C01001B24020000001B2A5351
:101AF000C98F803653C98F43C910802E53C98F4375
:101B0000C920802653C98F43C930801E53C98F43D3
:101B1000C940801653C98F43C950800E53C98F43A3
:101B2000C960800653C98F43C97053C8FEE4F5915C
:101B300043C980F59143C9047B407A42790FF8AFDD
:101B40000BAE0AAD09AC081216F1AB13AA12A9111B
:101B5000A810121666C006C007AE0CAF0DAB07AAE0
:101B600006E4F9F8D007D0061216F1C3E49FFFE4AB
:101B70009EFE74019DFDE49CFCEFE48F147B407A93
:101B800042790FF8AF0BAE0AAD09AC081216F1ABF3
:101B900013AA12A911A810121666C006C007AE0C2F
:101BA000AF0DAB07AA06E4F9F8D007D0061216F17C
:101BB000C3E49FFFE49EFE74019DFDE49CFC780855
:101BC000121783E50F450E601B8514CC8FCD43C8DB
:101BD0000430CFFD53C87F53C8FBE50F150F7002CB
:041BE000150E80DF7F
:011BE40022DE
:081BE5008F4A8E498D488C47A0
:101BED00E4F591E54B24FE602124FE602524FC6084
:101BFD002924F8602D24F0603124E0603524C06084
:101C0D0039247F703B53C4F8803653C4F843C40164
:101C1D00802E53C4F843C402802653C4F843C40332
:101C2D00801E53C4F843C404801653C4F843C4053E
:101C3D00800E53C4F843C406800653C4F843C4074A
:101C4D007B407A42790F7800AF4AAE49AD48AC4738
:101C5D001216F1AB51AA50A94FA84E121666C00725
:101C6D00AF4BAB07E4FAF9F8D0071216F1C3E49FB6
:101C7D00FFE49EFE74019DFDE49CFCEFE48F527B1E
:101C8D00407A42790FF8AF4AAE49AD48AC471216CB
:101C9D00F1AB51AA50A94FA84E121666C007AF4B13
:101CAD00AB07E4FAF9F8D0071216F1C3E49FFFE48D
:101CBD009EFE74019DFDE49CFC7808121783E54D92
:101CCD00454C602DE4F59153C4EF8552C58FC6F593
:101CDD009143C408E5C444EF64EF60F8E4F5915313
:101CED00C4EFF59153C4F7E54D154D7002154C80B9
:011CFD00CD19
:011CFE0022C3
:10093900C10CC10DC10EC10FC110C111C112C1132A
:10094900C114C1150153000154000155000156009D
:10095900015700015800015900015A00015B0001CB
:020969005C0030
:10007E00E5905480FFC413135403FFE5B054014FB1
:10008E0004FF74442540F8A6070540D3E5409402CA
:0A009E00748094804003E4F54022D2
:03000B00020E7072
:100E7000C0E0C083C082C0D075D000C000C004C034
:100E800006C007C091759100758CFC758A17C28DDC
:100E9000200C03020F360553D3E553940474809459
:100EA000805003020F36C20C755300E54124FE60EA
:100EB0002814604314605E2403707674802533F533
:100EC00082E43405F583E52FF00533E533541FF54F
:100ED00033200A5D43F802805874202534F582E4FB
:100EE0003406F583E530F00534E534541FF53475E8
:100EF000910243DD02803A74402537F582E43406DE
:100F0000F583E531F00537E537541FF53775910264
:100F100043E502801C7460253AF582E43406F583CB
:100F2000E532F0053AE53A541FF53A75910243ED82
:100F300002759100D2013012180559D3E559940475
:100F400074809480400B755900C212200A0343F844
:100F50000230131B055AD3E55A94047480948040E0
:100F60000E755A00C21375910243DD02759100306F
:100F7000141B055BD3E55B940474809480400E756C
:100F80005B00C21475910243E50275910030151B98
:100F9000055CD3E55C940474809480400E755C001D
:100FA000C21575910243ED02759100200D030210E8
:100FB000470554D3E5549404748094805003021080
:100FC00047755400300B03021047C20DE525652418
:100FD0007038E52425E025E02494F582E43406F514
:100FE00083E0FEA3E04E7022900682E0FF9006832D
:100FF000E0B50716EF25E02494F582E43407F58385
:10100000E0FEA3E04E7003439802E52525E025E0CD
:101010002494F582E43406F583E4F0A304F0E52596
:1010200025E025E02496F582E43406F583E535F0E5
:10103000A3E536F00525E525543FF525B52402D274
:101040000B753500753600200E030210E40555D3EC
:10105000E55594047480948050030210E4755500A3
:10106000300B030210E4C20EE52565247038E52438
:1010700025E025E02494F582E43406F583E0FEA320
:10108000E04E7022900682E0FF900683E0B50716DE
:10109000EF25E02494F582E43407F583E0FEA3E035
:1010A0004E7003439802E52525E025E02494F5825F
:1010B000E43406F583E4F0A37402F0E52525E02589
:1010C000E02496F582E43406F583E538F0A3E539AB
:1010D000F00525E525543FF525B52402D20B7538DA
:1010E00000753900200F030211810556D3E556948F
:1010F00004748094805003021181755600300B03F4
:10110000021181C20FE52565247038E52425E0250C
:10111000E02494F582E43406F583E0FEA3E04E700B
:1011200022900682E0FF900683E0B50716EF25E0E7
:101130002494F582E43407F583E0FEA3E04E7003C7
:10114000439802E52525E025E02494F582E4340661
:10115000F583E4F0A37403F0E52525E025E024966B
:10116000F582E43406F583E53BF0A3E53CF0052584
:10117000E525543FF525B52402D20B753B00753C9F
:101180000020100302120A0557D3E5579404748017
:1011900094804076755700200070C210900682E05F
:1011A000FF900683E0FE6F7031EF25E02494F58216
:1011B000E43407F583E0FCA3E04C701EE525B5247C
:1011C00019E52425E025E02494F582E43406F5832E
:1011D000E0FCA3E04C7003439802EE25E02494F574
:1011E00082E43407F583E53DF0A3E53EF090068305
:1011F000E004F0540FF0900682E0FF900683E0B523
:101200000702D200753D00753E0030112C0558D301
:10121000E558940474809480401F755800C21120D2
:101220000B14E524B5250F20000C900683E0FF90F9
:101230000682E06F600343980212007ED091D007CF
:0F124000D006D004D000D0D0D082D083D0E032FE
:08232D008F188E178D168C1518
:10233500A2AF9218E4F5915389F0438901F59153C1
:102345008EF743A802D2AFF51DF51EC3E51E951AFB
:10235500E51D951940030223F67B407A42790F78F3
:1023650000AF18AE17AD16AC151216F1A804A905E5
:10237500AA06AB07AE1BAF1CE4FCFD121666E47B98
:102385000CFAF9F81216F1C374FF9FFF74FF9EFE55
:10239500E49DFDE49CFCEFE48F8A7B407A42790F53
:1023A500F8AF18AE17AD16AC151216F1A804A905AD
:1023B500AA06AB07AE1BAF1CE4FCFD121666E47B58
:1023C5000CFAF9F81216F1C374FF9FFF74FF9EFE15
:1023D500E49DFDE49CFC78081217838F8C438810DC
:1023E500308DFD5388EF051EE51E7002051D022385
:0823F5005053A8FDA21892AF9D
:0123FD0022BD
:070003005388EF53A8FD2212
:102AAD00E4F59153C98F43C91053C8FEF59143C93D
:102ABD0080F59143C904EF4E601675CC4775CDF482
:102ACD0043C80430CFFD53C87FEF1F70011E80E651
:042ADD0053C8FB22BD
:030000000229A62C
:1029A600787FE4F6D8FD9000007FFF7E03E4F0A375
:0A29B600DFFCDEFA75817B0229FBCD
:1029C0000217C3E493A3F8E493A34003F68001F253
:1029D00008DFF48029E493A3F85407240CC8C33318
:1029E000C4540F4420C8834004F456800146F6DFE7
:1029F000E4800B01020408102040809000BEE47EB9
:102A0000019360BCA3FF543F30E509541FFEE493DB
:102A1000A360010ECF54C025E060A840B8E493A3A2
:102A2000FAE493A3F8E493A3C8C582C8CAC583CACD
:102A3000F0A3C8C582C8CAC583CADFE9DEE780BE85
:01096B00008B
:1015FB00BC000BBE0029EF8DF084FFADF022E4CCD4
:10160B00F875F008EF2FFFEE33FEEC33FCEE9DEC9C
:10161B00984005FCEE9DFE0FD5F0E9E4CEFD22EDE2
:10162B00F8F5F0EE8420D21CFEADF075F008EF2F2C
:10163B00FFED33FD4007985006D5F0F222C398FD1D
:05164B000FD5F0EA22BA
:10165000C5F0F8A3E028F0C5F0F8E5821582700225
:061660001583E038F022C2
:10166600E88FF0A4CC8BF0A42CFCE98EF0A42CFC23
:101676008AF0EDA42CFCEA8EF0A4CDA8F08BF0A4A1
:101686002DCC3825F0FDE98FF0A42CCD35F0FCEB00
:101696008EF0A4FEA9F0EB8FF0A4CFC5F02ECD39C5
:0F16A600FEE43CFCEAA42DCE35F0FDE43CFC2232
:1016B50075F008758200EF2FFFEE33FECD33CDCCEC
:1016C50033CCC58233C5829BED9AEC99E58298406F
:1016D5000CF582EE9BFEED9AFDEC99FC0FD5F0D64C
:1016E500E4CEFBE4CDFAE4CCF9A88222B800C1B976
:1016F5000059BA002DEC8BF084CFCECDFCE5F0CBB4
:10170500F97818EF2FFFEE33FEED33FDEC33FCEBEC
:1017150033FB10D703994004EB99FB0FD8E5E4F9A7
:10172500FA227818EF2FFFEE33FEED33FDEC33FC94
:10173500C933C910D7059BE99A4007EC9BFCE99A88
:10174500F90FD8E0E4C9FAE4CCFB2275F010EF2FCD
:10175500FFEE33FEED33FDCC33CCC833C810D707CD
:101765009BEC9AE899400AED9BFDEC9AFCE899F808
:0E1775000FD5F0DAE4CDFBE4CCFAE4C8F9229B
:10178300E8600FECC313FCED13FDEE13FEEF13FF44
:03179300D8F12268
:10179600D083D082F8E4937012740193700DA3A3E2
:1017A60093F8740193F5828883E473740293B5F019
:0D17B600067403936860E9A3A3A3A380D881
:00000001FF
