:10124400E4F59143B12053B2DFF59153E83043E81C
:1012540004F5F643F61043E101F55CC3E55C940341
:101264007480948050287F027E0012002653E87F09
:1012740043E84030EFFDAFC3E55C25E024B4F582DC
:10128400E43407F583E4F0A3EFF0055C80CD900728
:10129400B6E0FEA3E0FF9007B5E02FFF9007B4E0AF
:1012A4003EFE9007B9E02FFF9007B8E03EFE7C00B9
:1012B4007D031216459007B4EEF0A3EFF0C3941F1C
:1012C400EE9400501AE4F561756580756425F56344
:1012D400F562FF7E367D6E7C011219BA02136FC36C
:1012E4009007B5E0945E9007B4E094005018E4F5DC
:1012F40061F56575644BF563F562FF7E367D6E7C42
:10130400011219BA8065C39007B5E094979007B4A9
:10131400E094005018E4F561F565756496F563F59D
:1013240062FF7E367D6E7C011219BA803EC390073F
:10133400B5E094D59007B4E094005018E4F561F555
:10134400657564E1F563F562FF7E367D6E7C01129E
:1013540019BA8017E4F561F5657564C2756301F522
:1013640062FF7E367D6E7C011219BAE4F59143B3B7
:101374000253B4FDF59153E83043E807F5F643F61C
:101384008043E101F55CC3E55C9403748094805070
:10139400287F027E0012002653E87F43E84030EFA6
:1013A400FDAFC3E55C25E024B4F582E43407F5839E
:1013B400E4F0A3EFF0055C80CD9007B6E0FEA3E077
:1013C400FF9007B5E02FFF9007B4E03EFE9007B909
:1013D400E02FFF9007B8E03EFE7C007D0312164527
:1013E4009007B4EEF0A3EFF0C3941FEE9400501AEC
:1013F400756102E4756580756425F563F562FF7EA9
:10140400367D6E7C011219BA8017756102E4F565A8
:1014140075644BF563F562FF7E367D6E7C011219AF
:10142400BAE4F59143B30853B4F7F59153E8304364
:10143400E80D759102F599439920F59143E101F581
:101444005CC3E55C94037480948050287F027E0022
:1014540012002653E87F43E84030EFFDAFC3E55C5C
:1014640025E024B4F582E43407F583E4F0A3EFF037
:10147400055C80CD9007B6E0FEA3E0FF9007B5E0E1
:101484002FFF9007B4E03EFE9007B9E02FFF9007CE
:10149400B8E03EFE7C007D031216459007B4EEF0E2
:1014A400A3EFF0C3941FEE94005017E475648075A5
:1014B4006325F562F561FF7E367D6E7C0112297726
:1014C4008014E4F56475634BF562F561FF7E367D47
:1014D4006E7C01122977E4F59143B31053B4EFF510
:1014E4009153E83043E80E759102F599439940F51C
:1014F4009143E101F55CC3E55C94037480948050EE
:10150400287F027E0012002653E87F43E84030EF34
:10151400FDAFC3E55C25E024B4F582E43407F5832C
:10152400E4F0A3EFF0055C80CD9007B6E0FEA3E005
:10153400FF9007B5E02FFF9007B4E03EFE9007B997
:10154400E02FFF9007B8E03EFE7C007D03121645B5
:101554009007B4EEF0A3EFF0C3941FEE940050177D
:10156400E4756480756325F562F561FF7E367D6EF2
:101574007C0112282F8014E4F56475634BF562F541
:1015840061FF7E367D6E7C0112282F75910243899E
:1015940010538AEFE4F59153E83043E80C75910257
:1015A400F599439910F59143E101F55CC3E55C9429
:1015B400037480948050287F027E0012002653E832
:1015C4007F43E84030EFFDAFC3E55C25E024B4F58C
:1015D40082E43407F583E4F0A3EFF0055C80CD905A
:1015E40007B6E0FEA3E0FF9007B5E02FFF9007B435
:1015F400E03EFE9007B9E02FFF9007B8E03EFE7C86
:10160400007D031216459007B4EEF0A3EFF0C394E7
:101614001FEE94005016E4756480756325F562F539
:1016240061FF7E367D6E7C011228D322E4F5647559
:10163400634BF562F561FF7E367D6E7C011228D323
:011644002283
:102B1C00E4F55DF55EF55CC3E55C9403748094802C
:102B2C005015A2B4E433F55E255DF55D7F047E009F
:0D2B3C00120026055C80E0E55DC313F54244
:012B49002269
:101D4900E4FDFC74002DF58274033CF583E4F07422
:101D5900802DF58274043CF583E4F074002DF5823E
:101D690074053CF583E4F074A02DF58274053CF507
:101D790083E4F00DBD00010CED64804C70C5E4FCFA
:101D8900FD74802DF58274053CF583E4F074202DF3
:101D9900F58274063CF583E4F074402DF5827406EF
:101DA9003CF583E4F074602DF58274063CF583E418
:101DB900F00DBD00010CED64204C70C5E4FCFD7410
:101DC900002DF58274003CF583E4F074002DF58252
:101DD90074013CF583E4F074002DF58274023CF53E
:101DE90083E4F074802DF58274033CF583E4F00DEF
:101DF900BD00010CE4B505C7ECB401C3E4FCFDAEBC
:101E090004ED7802C333CE33CED8F9FF2494F5829A
:101E190074063EF583E4F0A3F074962FF5827406F8
:101E29003EF583E4F0A3F00DBD00010CED64404CD8
:101E390070CDE4FCFDED25E0FFEC33FE74942FF545
:101E49008274073EF583E4F0A3F00DBD00010CEDAB
:051E590064104C70E074
:011E5E002261
:10180D007F0612246DE4F59143B12053B2DFF591BB
:10181D0043B30253B4FDF59143B30853B4F7F591B7
:10182D0043B31053B4EF759102438910538AEFF50A
:10183D009143AC1053ADEFF59143B38053B47FF5A5
:10184D009143AC0153ADFE7591025389FD438A025C
:10185D00F59153ACDF43AD20F59153B3FB43B40485
:10186D00F59153B1FD43B202F59153ACF743AD0879
:10187D00D2A1D2B5D292D281D2B3F59153B1BF4399
:10188D00B240F59143B18053B27FF59153B3FE430E
:10189D00B401F59143B10153B2FEF59153B1F74344
:1018AD00B208F59143B11053B2EFF59153B3DF4345
:1018BD00B420759102438920538ADF7591025389B3
:1018CD00F7438A08759102438904538AFB75910287
:1018DD0043A10875910243A104F59175910243A1AD
:1018ED000275910243A101F59175910253A17F7586
:1018FD00910243A140F59175910253A1DF759102BB
:10190D0043A110F59175910243A20875910253A25E
:10191D00FBF59175910243A20275910253A2FEF55A
:10192D009175910253A27F75910243A240F5917575
:10193D00910253A2DF75910243A210F59112124448
:10194D00121D49D202122B1C43A810E4F591439CA1
:10195D000175910243DD01F59175910243E501F5A4
:10196D009175910243ED01F591F5915389F04389FC
:10197D0001F591538EF7758CFE758A0B43A80243C2
:10198D00881075910243DD0175910243E501759152
:10199D000243ED0175910253F1FB75910253F3FB77
:0D19AD0075910253F5FBF591D2AF80FE223B
:10246D00E4F591EF24F9600C14600E2402700D75E3
:10247D00A638800875A630800375A630E4F591A2C4
:10248D00AF920FC2AF75C7AA75C755439F01A20F73
:10249D0092AFF5A775AF04F591A2AF920FC2AF75CC
:1024AD00C7AA75C75543A401A20F92AFAEAE05A63C
:1024BD00F591A2AF920FC2AF75C7AA75C75543A4C8
:1024CD0001A20F92AFADAEF591A2AF920FC2AF7553
:1024DD00C7AA75C755539FFEA20F92AFEF24F87090
:1024ED0023EE25E0FFE433FEED54017C002FFFECDD
:1024FD003EFE74F12FFF74FF3EFEEF5401FDEEC35F
:10250D0013EF13FE75C7AA75C7558E8475C7AA75C7
:10251D00C7558D85E4F591A2AF920FC2AF75C7AACD
:0D252D0075C755539FFEA20F92AF5387EF65
:01253A00227E
:10253B00EF24FE603E1460461460641470030225A1
:10254B00D5240560030225FF7F0212229B7F021216
:10255B00277BE4FF12229BE4FF12277BE4F591A279
:10256B00AF920FC2AF75C7AA75C7555397DFA20FAE
:10257B0092AF227F0212229B7F0212277B227F03C4
:10258B0012229B7F0312277BE4F591A2AF920FC21D
:10259B00AF75C7AA75C7555397DFA20F92AF227FAE
:1025AB000212229B7F0212277B7F0412229B7F0445
:1025BB0012277BE4F591A2AF920FC2AF75C7AA7534
:1025CB00C7555397DFA20F92AF227F0212229B7F38
:1025DB000212277B7F0512229B7F0512277BE4F5D6
:1025EB0091A2AF920FC2AF75C7AA75C7555397DFAC
:0525FB00A20F92AF22C7
:10229B00EF24FE604D14606E147003022332147031
:1022AB00030223682405600302239BE4F591A2AF8C
:1022BB00920FC2AF75C7AA75C75553977FA20F92DE
:1022CB00AFF591A2AF920FC2AF75C7AA75C75543B1
:1022DB009740A20F92AFE596447F700302239B8039
:1022EB00F522E4F591A2AF920FC2AF75C7AA75C7DD
:1022FB0055439720A20F92AFE59644DF64DF60034E
:10230B0002239B80F322E4F591A2AF920FC2AF752B
:10231B00C7AA75C755439710A20F92AFE59644EF26
:10232B0064EF706C80F622E4F591A2AF920FC2AF0E
:10233B0075C7AA75C755439780A20F92AFF591A2A7
:10234B00AF920FC2AF75C7AA75C755439740A20F7F
:10235B0092AFE59644F764F7703680F622E4F59178
:10236B00A2AF920FC2AF75C7AA75C755439780A28C
:10237B000F92AFF591A2AF920FC2AF75C7AA75C7F7
:10238B00555397BFA20F92AFE59644BF64BF60F859
:01239B00221F
:102AAF00C20DE4F591EF24FE601114602614603B13
:102ABF0014603C2405703AD20D8036E4F591A2AF34
:102ACF00920FC2AF75C7AA75C7555397DFA20F9262
:102ADF00AF801EE4F591A2AF920FC2AF75C7AA7572
:102AEF00C7555397EFA20F92AF8006D20D8002D237
:102AFF000D300D18E4F591A2AF920FC2AF75C7AAB2
:0C2B0F0075C75553973FA20F92AFC20D3F
:012B1B002297
:10277B00C20EE4F591A2AF920FC2AFEF24FE60112F
:10278B0014603B14606514606624057064D20E807F
:10279B0060E4F591A2AF920FC2AF75C7AA75C7558A
:1027AB005396FBA20F92AFF591A2AF920FC2AF75EA
:1027BB00C7AA75C7555396FDA20F92AF8033E4F5A8
:1027CB0091A2AF920FC2AF75C7AA75C755439604B6
:1027DB00A20F92AFF591A2AF920FC2AF75C7AA75B8
:1027EB00C7555396FDA20F92AF8006D20E8002D230
:1027FB000E300E2BE4F591A2AF920FC2AF75C7AAA4
:10280B0075C7555396FBA20F92AFF591A2AF920FDE
:10281B00C2AF75C7AA75C755439602A20F92AFA256
:03282B000F92AF5A
:01282E002287
:1000BE00C107C108C109C10AC182C10BC103C10474
:1000CE00C105C106C101C1000142006080030000EC
:1000DE000000000000000000000000000000000012
:1000EE000000000000000000000000000000000002
:1000FE0000000000000000000000000000000000F2
:10010E0000000000000000000000000000000000E1
:10011E0000000000000000000000000000000000D1
:10012E0000000000000000000000000000000000C1
:10013E0000000000000000000000000000000000B1
:10014E000000000000000000000000000000006041
:10015E0020058000000000000000000000000000EC
:10016E000000000000000000000000000000000081
:10017E00000000608004800000000000000000000D
:10018E000000000000000000000000000000000061
:10019E000000000000000000000000000000000051
:1001AE000000000000000000000000000000000041
:1001BE000000000000000000000000000000000031
:1001CE000000000000000000000000000000000021
:1001DE000000000000000000000000000000000011
:1001EE000000000000000000000000000000000001
:1001FE00000000000000006020062000000000004B
:10020E0000000000000000000000000000000000E0
:10021E0000000000000000000000006080050000EB
:10022E0000000000000000000000000000000000C0
:10023E0000000000000000000000000000000000B0
:10024E0000000000000000000000000000000000A0
:10025E000000000000000000000000000000000090
:10026E000000000000000000000000000000000080
:10027E000000000000000000000000000000000070
:10028E000000000000000000000000000000000060
:10029E0000000000000000000000000000000060F0
:1002AE0020064000000000000000000000000000DA
:1002BE000000000000000000000000000000000030
:1002CE00000000608005A00000000000000000009B
:1002DE000000000000000000000000000000000010
:1002EE000000000000000000000000000000000000
:1002FE0000000000000000000000000000000000F0
:10030E0000000000000000000000000000000000DF
:10031E0000000000000000000000000000000000CF
:10032E0000000000000000000000000000000000BF
:10033E0000000000000000000000000000000000AF
:10034E0000000000000000602006600000000000B9
:10035E00000000000000000000000000000000008F
:10036E000000000000000000000000610006940084
:10037E00000000000000000000000000000000006F
:10038E00000000000000000000000000000000005F
:10039E00000000000000000000000000000000004F
:1003AE00000000000000000000000000000000003F
:1003BE00000000000000000000000000000000002F
:1003CE00000000000000000000000000000000001F
:1003DE00000000000000000000000000000000000F
:1003EE0000000000000000000000000000000000FF
:1003FE0000000000000000000000000000000000EF
:10040E0000000000000000000000000000000000DE
:10041E0000000000000000000000000000000000CE
:10042E0000000000000000000000000000000000BE
:10043E0000000000000000000000000000000000AE
:10044E00000000000000000000000000000000009E
:10045E00000000000000000000000000000000008E
:10046E00000000000000000000000000000000601E
:10047E0020079400000000000000000000000000B3
:10048E00000000000000000000000000000000005E
:10049E0000000061000000000000000000000000ED
:1004AE00000000000000000000000000000000003E
:1004BE00000000000000000000000000000000002E
:1004CE00000000000000000000000000000000001E
:1004DE00000000000000000000000000000000000E
:1004EE0000000000000000000000000000000000FE
:1004FE0000000000000000000000000000000000EE
:10050E0000000000000000000000000000000000DD
:10051E0000000000000000000000000000000000CD
:10052E0000000000000000000000000000000000BD
:10053E0000000000000000000000000000000000AD
:10054E00000000000000000000000000000000009D
:10055E00000000000000000000000000000000008D
:10056E00000000000000000000000000000000007D
:10057E00000000000000000000000000000000006D
:10058E00000000000000000000000000000000005D
:10059E0000000000000000610001000000000000EB
:1005AE00000000000000000000000000000000003D
:1005BE00000000000000000000000000000000002D
:1005CE00000000000000000000000000000000001D
:1005DE00000000000000000000000000000000000D
:1005EE0000000000000000000000000000000000FD
:1005FE0000000000000000000000000000000000ED
:10060E0000000000000000000000000000000000DC
:10061E0000000000000000000000000000000000CC
:10062E0000000000000000000000000000000000BC
:10063E0000000000000000000000000000000000AC
:10064E00000000000000000000000000000000009C
:10065E00000000000000000000000000000000008C
:10066E00000000000000000000000000000000007C
:10067E00000000000000000000000000000000006C
:10068E00000000000000000000000000000000005C
:10069E0000000000000000000000006100020000E9
:1006AE00000000000000000000000000000000003C
:1006BE00000000000000000000000000000000002C
:1006CE00000000000000000000000000000000001C
:1006DE00000000000000000000000000000000000C
:1006EE0000000000000000000000000000000000FC
:1006FE0000000000000000000000000000000000EC
:10070E0000000000000000000000000000000000DB
:10071E0000000000000000000000000000000000CB
:10072E0000000000000000000000000000000000BB
:10073E0000000000000000000000000000000000AB
:10074E00000000000000000000000000000000009B
:10075E00000000000000000000000000000000008B
:10076E00000000000000000000000000000000007B
:10077E00000000000000000000000000000000006B
:10078E00000000000000000000000000000000005B
:10079E0000000000000000000000000000000061EA
:1007AE0000038000000000000000000000000000B8
:1007BE00000000000000000000000000000000002B
:1007CE00000000000000000000000000000000001B
:1007DE00000000000000000000000000000000000B
:1007EE0000000000000000000000000000000000FB
:1007FE0000000000000000000000000000000000EB
:10080E0000000000000000000000000000000000DA
:10081E0000000000000000000000000000000000CA
:10082E0000000000000000000000000000000000BA
:10083E0000000000000000000000000000000000AA
:10084E00000000000000000000000000000000009A
:10085E00000000000000000000000000000000008A
:10086E00000000000000000000000000000000007A
:10087E00000000000000000000000000000000006A
:10088E00000000000000000000000000000000005A
:10089E00000000000000000000000000000000004A
:1008AE00000000012400023300000236000002396D
:1008BE000000023B0000013D000123000122004127
:1008CE000683004106820042068C00004206840028
:1008DE000042068E0000420686000042069000008E
:1008EE004206880000420692000042068A0000017D
:1008FE002D00012500013100012900012E000126E5
:10090E0000013200012A00012F00012700013500ED
:10091E00012B00013000012800013800012C0002DB
:10092E004000004206800000013E0003430000002C
:03002300020DE1EA
:100DE100C0E0C0F0C083C082C0D075D000C000C0D8
:100DF10002C004C005C006C007C0917591002098CB
:100E010003020EFD755208300217E5436544600583
:100E1100E543B5450585433F8007E544B54502F502
:100E21003FE53F24FE6045146073147003020ECC4D
:100E310024036003020EF8300703020EF8759100D7
:100E41007400252DF582E43403F583E599F0052D31
:100E5100E52D547FF52DB52507D207C2B5020EF851
:100E6100300B03020EF843F802020EF830080302B9
:100E71000EF87591007480252EF582E43404F58313
:100E8100E599F0052EE52E547FF52EB52604D208FE
:100E9100C29275910243DD02759100805A20095773
:100EA1007591007400252FF582E43405F583E599E9
:100EB100F0052FE52F547FF52FB52704D209C28104
:100EC10075910243E502759100802C200A297591E4
:100ED1000074A02530F582E43405F583E599F00529
:100EE10030E530547FF530B52804D20AC2B375918C
:100EF1000243ED02759100C2025398FE209903024C
:100F0100122B5398FDE5576409600302122BE54249
:100F11007003020FCAE54145406003020FCA900603
:100F210082E025E02494F582E43407F583E0FEA312
:100F3100E0FF4E7003020FCA900680E0FCA3E0FDC3
:100F4100C39FEC9E503CE004F07006900680E004E4
:100F5100F0759100900684E0FEA3E02400F5827410
:100F6100003EF583E0F599900684E475F0011216D0
:100F71009AAFF0900684E4F0A3EFF0C203D2B50279
:100F8100122B900682E0FF25E02494F582E43407D9
:100F9100F583E0FAA3E06D7002EC6A600302122BA4
:100FA100900680F0A3F0EF25E02494F582E4340765
:100FB100F583E4F0A3F0900682E004F0540FF0C250
:100FC10001D2A175570802122BE52225E025E02464
:100FD10094F582E43406F583E0FEA3E0FFEE6003BE
:100FE10002122BEF24FE7003021091147003021100
:100FF1001C1470030211A72403600302122BE542A3
:10100100600302122BE52225E025E02496F582E417
:101011003406F583E0FCA3E0FDD39541EC95404017
:10102100390541E54170020540759100900684E063
:10103100FEA3E02400F58274003EF583E0F599906B
:101041000684E475F00112169AAFF0900684E4F07C
:10105100A3EFF0C203D2B502122BED65417003EC90
:101061006540600302122BF540F541E52225E0259C
:10107100E02494F582E43406F583E4F0A3F005223C
:10108100E522543FF522C20CD2A175570802122B5A
:10109100E52225E025E02496F582E43406F583E097
:1010A100FCA3E0FDD39541EC954040390541E54174
:1010B10070020540759100900686E0FEA3E02400D1
:1010C100F58274013EF583E0F599900686E475F0AA
:1010D1000112169AAFF0900686E4F0A3EFF0C20475
:1010E100D29202122BED65417003EC654060030260
:1010F100122BF540F541E52225E025E02494F58207
:10110100E43406F583E4F0A3F00522E522543FF52B
:1011110022C20CD2A175570802122BE52225E02527
:10112100E02496F582E43406F583E0FCA3E0FDD3E8
:101131009541EC954040390541E541700205407506
:101141009100900688E0FEA3E02400F58274023E3F
:10115100F583E0F599900688E475F00112169AAFCF
:10116100F0900688E4F0A3EFF0C205D28102122BC1
:10117100ED65417003EC6540600302122BF540F50B
:1011810041E52225E025E02494F582E43406F58347
:10119100E4F0A3F00522E522543FF522C20CD2A1CE
:1011A10075570802122BE52225E025E02496F582E9
:1011B100E43406F583E0FCA3E0FDD39541EC9540D2
:1011C10040380541E5417002054075910090068A5D
:1011D100E0FEA3E02480F58274033EF583E0F599F7
:1011E10090068AE475F00112169AAFF090068AE42F
:1011F100F0A3EFF0C206D2B38030EDB5412CECB5CF
:101201004028754000754100E52225E025E0249441
:10121100F582E43406F583E4F0A3F00522E52254D7
:101221003FF522C20CD2A1755708D091D007D00644
:10123100D005D004D002D000D0D0D082D083D0F05D
:03124100D0E032C8
:03007B00022198C7
:10219800C0E0C0F0C083C082C0D075D000C000C00D
:1021A80006C007C09175910030F87A755308E5426A
:1021B8006006A20192008004A20C92002003632012
:1021C800006075910090068CE0FEA3E02400F58283
:1021D80074003EF583E59AF090068CE475F00112E0
:1021E800169AAFF090068CE4F0A3EFF00534E534CE
:1021F80070020533753300F534900684E0FEA3E0E1
:10220800FF90068CE06E7003A3E06F6006E534452E
:1022180033700FD203E53445337005753301F53457
:10222800C2B553F8FE30F958C20B53F8FDE53165D5
:10223800296020E5586409701A74802529F582E41C
:102248003405F583E0B5250B0529E529541FF52943
:10225800755808200706E525652D6024E5586409AA
:10226800701ED20BF59174002525F582E43403F530
:1022780083E0F59A0525E525547FF525C207D2B5F3
:10228800D091D007D006D000D0D0D082D083D0F063
:03229800D0E03261
:0300AB00021E5FD3
:101E5F00C0E0C0F0C083C082C0D075D000C000C049
:101E6F0006C007C091759102E5DE30E07175540828
:101E7F00200465200C6275910290068EE0FEA3E0AF
:101E8F002400F58274013EF583E5D9F090068EE4C7
:101E9F0075F00112169AAFF090068EE4F0A3EFF0F2
:101EAF000537E53770020536753600F5379006862B
:101EBF00E0FEA3E0FF90068EE06E7003A3E06F607C
:101ECF0006E53745367017D204E537453670057588
:101EDF003601F537C292800675910285D924E5DE69
:101EEF0030E16A75910253F1FB75910253DDFDE507
:101EFF0032652A6026E559640970207420252AF579
:101F0F0082E43406F583E0B5260B052AE52A541F33
:101F1F00F52A75590875910243DD02200806E5265A
:101F2F00652E6029E5596409702375910274802527
:101F3F0026F582E43404F583E0F5D90526E5265429
:101F4F007FF526C208D29275910243DD027591008A
:101F5F00D091D007D006D000D0D0D082D083D0F08F
:031F6F00D0E0328D
:0300B300021F72B7
:101F7200C0E0C0F0C083C082C0D075D000C000C035
:101F820006C007C091759102E5E630E0717555080B
:101F9200200565200C62759102900690E0FEA3E098
:101FA2002400F58274023EF583E5E1F0900690E4A8
:101FB20075F00112169AAFF0900690E4F0A3EFF0DC
:101FC200053AE53A70020539753900F53A90068806
:101FD200E0FEA3E0FF900690E06E7003A3E06F6066
:101FE20006E53A45397017D205E53A453970057567
:101FF2003901F53AC281800675910285E124E5E650
:1020020030E16A75910253F3FB75910253E5FDE5E8
:1020120035652B6026E55A640970207440252BF53E
:1020220082E43406F583E0B5270B052BE52B541F1C
:10203200F52B755A0875910243E502200906E5273A
:10204200652F6029E55A6409702375910274002591
:1020520027F582E43405F583E0F5E10527E5275409
:102062007FF527C209D28175910243E5027591007D
:10207200D091D007D006D000D0D0D082D083D0F07B
:03208200D0E03279
:0300BB000220859B
:10208500C0E0C0F0C083C082C0D075D000C000C021
:1020950006C007C091759102E5EE30E071755608EE
:1020A500200665200C62759102900692E0FEA3E081
:1020B5002480F58274033EF583E5E9F0900692E409
:1020C50075F00112169AAFF0900692E4F0A3EFF0C6
:1020D500053CE53C7002053B753B00F53C90068AE6
:1020E500E0FEA3E0FF900692E06E7003A3E06F6050
:1020F50006E53C453B7017D206E53C453B7005754A
:102105003B01F53CC2B3800675910285E924E5EEF5
:1021150030E16A75910253F5FB75910253EDFDE5CA
:1021250038652C6026E55B640970207460252CF504
:1021350082E43406F583E0B5280B052CE52C541F05
:10214500F52C755B0875910243ED02200A06E5281A
:1021550065306029E55B6409702375910274A025DB
:1021650028F582E43405F583E0F5E90528E52854EA
:102175007FF528C20AD2B375910243ED027591002D
:10218500D091D007D006D000D0D0D082D083D0F067
:03219500D0E03265
:102B7200EF14600904700BE4F5918D9922E4F5914C
:032B82008D9A2207
:10000E007591028FD9E5DF30E3FB75910253F1FB59
:04001E00E4F5912252
:102B4A007591028FE1E5E730E3FB75910253F3FBE0
:042B5A00E4F59122EB
:102B5E007591028FE9E5EF30E3FB75910253F5FBBA
:042B6E00E4F59122D7
:1019BA008F608E5F8D5E8C5DE4F591E56114604801
:1019CA00147003021A8D24026003021B01759850D9
:1019DA00438920438780E4F591438E10F59153C4DF
:1019EA00DF7B10FAF9F8AF60AE5FAD5EAC5D12173F
:1019FA003BAB65AA64A963A86212173BEFF404F52E
:101A0A008D43884043A8102275985043878053C459
:101A1A00F8E4F59143C4207B10FAF9F8AF60AE5FA1
:101A2A00AD5EAC5D12173BAB65AA64A963A86212EE
:101A3A00173BC3E49FFFE49EFE74019DFDE49CFCFA
:101A4A0078081217CD8FC6E47B10FAF9F8AF60AEAA
:101A5A005FAD5EAC5D12173BAB65AA64A963A86271
:101A6A0012173BC3E49FFFE49EFE74019DFDE49CB4
:101A7A00FCEFE48FC5F59143C408F591539CFD43EF
:101A8A00A8102275F85053C4F8E47B10FAF9F8AF9D
:101A9A0060AE5FAD5EAC5D12173BAB65AA64A9632D
:101AAA00A86212173BC3E49FFFE49EFE74019DFDEA
:101ABA00E49CFC78081217CD8FC6E47B10FAF9F87B
:101ACA00AF60AE5FAD5EAC5D12173BAB65AA64A9B1
:101ADA0063A86212173BC3E49FFFE49EFE74019D54
:101AEA00FDE49CFCEFE48FC5F591539CFDF5914311
:081AFA00C408F591439C012290
:102977008F608E5F8D5E8C5D75910243F10175915D
:102987000243F20175910243F20275910253F1EF8E
:1029970075910253F1F7E47B08FAF9F8AF60AE5F7F
:1029A700AD5EAC5D12173BAB64AA63A962A8611266
:1029B700173BEF24FFFFEE34FFFEED34FFFDEC3451
:1029C700FFFCEFE48FDB53DCF07B08FAF9F8AF602C
:1029D700AE5FAD5EAC5D12173BAB64AA63A962A89C
:1029E7006112173BEF24FFFFEE34FFFEED34FFFDCE
:1029F700EC34FFFC78081217CDEF540F42DC7591C9
:0E2A07000243F24053F2CF75910243F1802258
:10282F008F608E5F8D5E8C5D75910243F3017591A4
:10283F000243F40175910243F40275910253F3EFD1
:10284F0075910253F3F7E47B08FAF9F8AF60AE5FC6
:10285F00AD5EAC5D12173BAB64AA63A962A86112AF
:10286F00173BEF24FFFFEE34FFFEED34FFFDEC349A
:10287F00FFFCEFE48FE353E4F07B08FAF9F8AF6065
:10288F00AE5FAD5EAC5D12173BAB64AA63A962A8E5
:10289F006112173BEF24FFFFEE34FFFEED34FFFD17
:1028AF00EC34FFFC78081217CDEF540F42E475910A
:1028BF000243F44053F4CF75910243F380E4F59152
:0428CF0043C40822D4
:1028D3008F608E5F8D5E8C5D75910243F5017591FE
:1028E3000243F60175910243F60275910253F5EF27
:1028F30075910253F5F7E47B08FAF9F8AF60AE5F20
:10290300AD5EAC5D12173BAB64AA63A962A861120A
:10291300173BEF24FFFFEE34FFFEED34FFFDEC34F5
:10292300FFFCEFE48FEB53ECF07B08FAF9F8AF60B0
:10293300AE5FAD5EAC5D12173BAB64AA63A962A840
:102943006112173BEF24FFFFEE34FFFEED34FFFD72
:10295300EC34FFFC78081217CDEF540F42EC75915D
:102963000243F64053F6CF75910243F580E4F591A7
:0429730043C408222F
:10005A00E4F591EF14600C0470103098FDAE99C26B
:0C006A0098800730F8FDAE9AC2F8AF068F
:010076002267
:082600008F698E688D678C66FE
:10260800E4F591F591538EF7F5915389F0438901DB
:102618007B407A42790FF8AF69AE68AD67AC661255
:10262800173BA804A905AA06AB07AE6CAF6DE4FC7E
:10263800FD1216B0E47B0CFAF9F812173BC374FFCD
:102648009FFF74FF9EFEE49DFDE49CFCEFE48F6E0B
:102658007B407A42790FF8AF69AE68AD67AC661215
:10266800173BA804A905AA06AB07AE6CAF6DE4FC3E
:10267800FD1216B0E47B0CFAF9F812173BC374FF8D
:102688009FFF74FF9EFEE49DFDE49CFC78081217F2
:10269800CDE56B456A601B856E8A8F8C4388103048
:1026A8008DFD5388DF5388EFE56B156B7002156A53
:0726B80080DFE4F58AF58CD8
:0126BF0022F8
:0826C0008F728E718D708C6F1A
:1026C800E4F591F591538EEFF59153890F438910F5
:1026D8007B407A42790FF8AF72AE71AD70AC6F1271
:1026E800173BA804A905AA06AB07AE75AF76E4FCAC
:1026F800FD1216B0E47B0CFAF9F812173BC374FF0D
:102708009FFF74FF9EFEE49DFDE49CFCEFE48F7741
:102718007B407A42790FF8AF72AE71AD70AC6F1230
:10272800173BA804A905AA06AB07AE75AF76E4FC6B
:10273800FD1216B0E47B0CFAF9F812173BC374FFCC
:102748009FFF74FF9EFEE49DFDE49CFC7808121731
:10275800CDE5744573601B85778B8F8D438840303A
:102768008FFD53887F5388BFE57415747002157305
:0227780080DF00
:01277A00223C
:081B02008F0B8E0A8D098C087F
:101B0A00E4F591E50D850CF01217E01B3900011B75
:101B1A003E00041B4600101B4E00201B5600401BB3
:101B2A005E00801B6601001B6E020000001B7453DE
:101B3A00C98F803653C98F43C910802E53C98F432A
:101B4A00C920802653C98F43C930801E53C98F4389
:101B5A00C940801653C98F43C950800E53C98F4359
:101B6A00C960800653C98F43C97053C8FEE4F59112
:101B7A0043C980F59143C9047B407A42790FF8AF93
:101B8A000BAE0AAD09AC0812173BAB13AA12A91186
:101B9A00A8101216B0C006C007AE0CAF0DAB07AA4C
:101BAA0006E4F9F8D007D00612173BC3E49FFFE416
:101BBA009EFE74019DFDE49CFCEFE48F147B407A49
:101BCA0042790FF8AF0BAE0AAD09AC0812173BAB5E
:101BDA0013AA12A911A8101216B0C006C007AE0C9B
:101BEA00AF0DAB07AA06E4F9F8D007D00612173BE7
:101BFA00C3E49FFFE49EFE74019DFDE49CFC78080B
:101C0A001217CDE50F450E601B8514CC8FCD43C846
:101C1A000430CFFD53C87F53C8FBE50F150F700280
:041C2A00150E80DF34
:011C2E002293
:081C2F008F498E488D478C4659
:101C3700E4F591E54A24FE602124FE602524FC603A
:101C47002924F8602D24F0603124E0603524C06039
:101C570039247F703B53C4F8803653C4F843C4011A
:101C6700802E53C4F843C402802653C4F843C403E8
:101C7700801E53C4F843C404801653C4F843C405F4
:101C8700800E53C4F843C406800653C4F843C40700
:101C97007B407A42790F7800AF49AE48AD47AC46F2
:101CA70012173BAB50AA4FA94EA84D1216B0C0074A
:101CB700AF4AAB07E4FAF9F8D00712173BC3E49F22
:101CC700FFE49EFE74019DFDE49CFCEFE48F517BD5
:101CD700407A42790FF8AF49AE48AD47AC46121784
:101CE7003BAB50AA4FA94EA84D1216B0C007AF4A3A
:101CF700AB07E4FAF9F8D00712173BC3E49FFFE4F8
:101D07009EFE74019DFDE49CFC78081217CDE54CFE
:101D1700454B602DE4F59153C4EF8551C58FC6F54A
:101D27009143C408E5C444EF64EF60F8E4F59153C8
:101D3700C4EFF59153C4F7E54C154C7002154B8071
:011D4700CDCE
:011D48002278
:10093E0001520901530901540901550901560901D2
:0E094E005709015809015909015A09015B09AD
:10007E00E5905480FFC413135403FFE5B054014FB1
:10008E0004FF7443253EF8A607053ED3E53E9402D1
:0A009E00748094804003E4F53E22D4
:03000B0002095D8A
:10095D00C0E0C083C082C0D075D000C000C006C04A
:10096D0007C091759100758CFE758A0BC28DAF52C3
:10097D007E00C3EF9409748094804003020A26EF31
:10098D0060021552E5526003020A26755209E53FD1
:10099D0024FE602814604314605E24037076748016
:1009AD002531F582E43405F583E52DF00531E5318A
:1009BD00541FF531200B5D43F80280587420253209
:1009CD00F582E43406F583E52EF00532E532541F49
:1009DD00F53275910243DD02803A74402535F5827A
:1009ED00E43406F583E52FF00535E535541FF5356F
:1009FD0075910243E502801C74602538F582E4345C
:100A0D0006F583E530F00538E538541FF538759156
:100A1D000243ED02759100D202AF587E00C3EF94F0
:100A2D0009748094805012EF60021558E5587009D2
:100A3D00755809200B0343F802AF597E00C3EF949C
:100A4D0009748094805014EF60021559E559700BAC
:100A5D0075590975910243DD02F591AF5A7E00C3B8
:100A6D00EF9409748094805014EF6002155AE55A82
:100A7D00700B755A0975910243E502F591AF5B7ED6
:100A8D0000C3EF9409748094805014EF6002155BDD
:100A9D00E55B700B755B0975910243ED02F591AF46
:100AAD00537E00C3EF9409748094804003020BD6EB
:100ABD00EF60021553E5536003020BD6E542607CEF
:100ACD00200179755309E52365227038E52225E06B
:100ADD0025E02494F582E43406F583E0FEA3E04E90
:100AED007022900682E0FF900683E0B50716EF2591
:100AFD00E02494F582E43407F583E0FEA3E04E7024
:100B0D0003439802900683E025E02494F582E434B3
:100B1D0007F583E533F0A3E534F0900683E004F0A8
:100B2D00540FF0900682E0FF900683E0B50704D2E3
:100B3D0001C2A1753300753400020BD6E542600386
:100B4D00020BD6300C03020BD6755309E523652233
:100B5D007038E52225E025E02494F582E43406F58D
:100B6D0083E0FEA3E04E7022900682E0FF900683A4
:100B7D00E0B50716EF25E02494F582E43407F583FC
:100B8D00E0FEA3E04E7003439802E52325E025E047
:100B9D002494F582E43406F583E4F0A304F0E52310
:100BAD0025E025E02496F582E43406F583E533F05F
:100BBD00A3E534F00523E523543FF523B52204D2F4
:100BCD000CC2A1753300753400AF547E00C3EF9491
:100BDD0009748094804003020C7AEF60021554E58D
:100BED00546003020C7A300C03020C7A755409E53B
:100BFD002365227038E52225E025E02494F582E472
:100C0D003406F583E0FEA3E04E7022900682E0FFED
:100C1D00900683E0B50716EF25E02494F582E434C1
:100C2D0007F583E0FEA3E04E7003439802E523250C
:100C3D00E025E02494F582E43406F583E4F0A37412
:100C4D0002F0E52325E025E02496F582E43406F54F
:100C5D0083E536F0A3E537F00523E523543FF5236F
:100C6D00B52204D20CC2A1753600753700AF557E82
:100C7D0000C3EF9409748094804003020D1EEF6051
:100C8D00021555E5556003020D1E300C03020D1EB5
:100C9D00755509E52365227038E52225E025E02408
:100CAD0094F582E43406F583E0FEA3E04E702290C5
:100CBD000682E0FF900683E0B50716EF25E0249449
:100CCD00F582E43407F583E0FEA3E04E700343980C
:100CDD0002E52325E025E02494F582E43406F5832E
:100CED00E4F0A37403F0E52325E025E02496F582D6
:100CFD00E43406F583E539F0A3E53AF00523E52361
:100D0D00543FF523B52204D20CC2A1753900753AB2
:100D1D0000AF567E00C3EF940974809480506DEF40
:100D2D0060021556E5567064200C61755609E52371
:100D3D00B52219E52225E025E02494F582E4340658
:100D4D00F583E0FEA3E04E7003439802E52325E012
:100D5D0025E02494F582E43406F583E4F0A37404CD
:100D6D00F0E52325E025E02496F582E43406F583AD
:100D7D00E53BF0A3E53CF00523E523543FF523B512
:100D8D002204D20CC2A1753B00753C00AF577E000A
:100D9D00C3EF9409748094805026EF60021557E5D7
:100DAD0057701D755709200C14E522B5230F20012E
:100DBD000C900683E0FF900682E06F60034398027B
:100DCD0012007ED091D007D006D000D0D0D082D0E6
:040DDD0083D0E032AD
:08239C008F188E178D168C15A9
:1023A400A2AF920FE4F5915389F0438901F591535B
:1023B4008EF743A802D2AFF51DF51EC3E51E951A8C
:1023C400E51D951940030224657B407A42790F7814
:1023D40000AF18AE17AD16AC1512173BA804A9052B
:1023E400AA06AB07AE1BAF1CE4FCFD1216B0E47BDF
:1023F4000CFAF9F812173BC374FF9FFF74FF9EFE9B
:10240400E49DFDE49CFCEFE48F8A7B407A42790FE3
:10241400F8AF18AE17AD16AC1512173BA804A905F2
:10242400AA06AB07AE1BAF1CE4FCFD1216B0E47B9E
:102434000CFAF9F812173BC374FF9FFF74FF9EFE5A
:10244400E49DFDE49CFC78081217CD8F8C43881022
:10245400308DFD5388EF051EE51E7002051D022315
:08246400BF53A8FDA20F92AFC7
:01246C00224D
:070003005388EF53A8FD2212
:10002600E4F59153C98F43C91053C8FEF59143C9EE
:1000360080F59143C904EF4E601675CC4775CDF433
:1000460043C80430CFFD53C87FEF1F70011E80E602
:0400560053C8FB226E
:03000000022A15BC
:102A1500787FE4F6D8FD9000007FFF7E03E4F0A305
:0A2A2500DFFCDEFA75817A022A6AEE
:102A2F0002180DE493A3F8E493A34003F68001F298
:102A3F0008DFF48029E493A3F85407240CC8C333A8
:102A4F00C4540F4420C8834004F456800146F6DF77
:102A5F00E4800B01020408102040809000BEE47E49
:102A6F00019360BCA3FF543F30E509541FFEE4936C
:102A7F00A360010ECF54C025E060A840B8E493A333
:102A8F00FAE493A3F8E493A3C8C582C8CAC583CA5E
:102A9F00F0A3C8C582C8CAC583CADFE9DEE780BE16
:01095C00009A
:10164500BC000BBE0029EF8DF084FFADF022E4CC89
:10165500F875F008EF2FFFEE33FEEC33FCEE9DEC52
:10166500984005FCEE9DFE0FD5F0E9E4CEFD22ED98
:10167500F8F5F0EE8420D21CFEADF075F008EF2FE2
:10168500FFED33FD4007985006D5F0F222C398FDD3
:051695000FD5F0EA2270
:10169A00C5F0F8A3E028F0C5F0F8E58215827002DB
:0616AA001583E038F02278
:1016B000E88FF0A4CC8BF0A42CFCE98EF0A42CFCD9
:1016C0008AF0EDA42CFCEA8EF0A4CDA8F08BF0A457
:1016D0002DCC3825F0FDE98FF0A42CCD35F0FCEBB6
:1016E0008EF0A4FEA9F0EB8FF0A4CFC5F02ECD397B
:0F16F000FEE43CFCEAA42DCE35F0FDE43CFC22E8
:1016FF0075F008758200EF2FFFEE33FECD33CDCCA2
:10170F0033CCC58233C5829BED9AEC99E582984024
:10171F000CF582EE9BFEED9AFDEC99FC0FD5F0D601
:10172F00E4CEFBE4CDFAE4CCF9A88222B800C1B92B
:10173F000059BA002DEC8BF084CFCECDFCE5F0CB69
:10174F00F97818EF2FFFEE33FEED33FDEC33FCEBA2
:10175F0033FB10D703994004EB99FB0FD8E5E4F95D
:10176F00FA227818EF2FFFEE33FEED33FDEC33FC4A
:10177F00C933C910D7059BE99A4007EC9BFCE99A3E
:10178F00F90FD8E0E4C9FAE4CCFB2275F010EF2F83
:10179F00FFEE33FEED33FDCC33CCC833C810D70783
:1017AF009BEC9AE899400AED9BFDEC9AFCE899F8BE
:0E17BF000FD5F0DAE4CDFBE4CCFAE4C8F92251
:1017CD00E8600FECC313FCED13FDEE13FEEF13FFFA
:0317DD00D8F1221E
:1017E000D083D082F8E4937012740193700DA3A398
:1017F00093F8740193F5828883E473740293B5F0CF
:0D180000067403936860E9A3A3A3A380D836
:00000001FF
