:03000B0002047676
:0F047600C091758C00758A10C28DB2B5D09132CD
:1004100075910053ACDF43AD2075910053890F7582
:100420009100538EF7758C00758A1043A802D2AFE5
:0604300043881080FE224B
:02011B008F084B
:10011D00759100E508120436013206013707013CDE
:10012D00080000013F75A638800875A6308003755C
:10013D00A630759100A2AF9202C2AF75C7AA75C75E
:10014D0055439F01A20292AF75A70075AF0475913B
:10015D0000A2AF9202C2AF75C7AA75C75543A401DD
:10016D00A20292AF85AE0905A6759100A2AF9202CB
:10017D00C2AF75C7AA75C75543A401A20292AF8538
:10018D00AE0A759100A2AF9202C2AF75C7AA75C72C
:10019D0055539FFEA20292AFE50812043601B10835
:1001AD00000001E9AF097E00EF25E0FFEE33FEE52B
:1001BD000A5401FD7C00EF2DF50CEE3CF50B74F1AE
:1001CD00250CF50C74FF350BF50BAF0CEF5401F549
:1001DD000AE50BC313FEE50C13FF8F0975C7AA754E
:1001ED00C75585098475C7AA75C755850A85759143
:1001FD0000A2AF9202C2AF75C7AA75C755539FFE35
:07020D00A20292AF5387EF3C
:0102140022C7
:100215008F10E510120436022F00025A0202650300
:1002250002860402B105000002DB7F0212000E7F88
:10023500021202DC7F0012000E7F001202DC7591B3
:1002450000A2AF9202C2AF75C7AA75C7555397DF13
:10025500A20292AF227F0212000E7F021202DC225E
:100265007F0312000E7F031202DC759100A2AF928C
:1002750002C2AF75C7AA75C7555397DFA20292AFE1
:10028500227F0212000E7F021202DC7F0412000E92
:100295007F041202DC759100A2AF9202C2AF75C74E
:1002A500AA75C7555397DFA20292AF227F021200AB
:1002B5000E7F021202DC7F0512000E7F051202DCA2
:1002C500759100A2AF9202C2AF75C7AA75C7555303
:0702D50097DFA20292AF22A5
:10000E008F11E511120436002800006202008803E9
:10001E0000AB0400E4050000011A759100A2AF9236
:10002E0002C2AF75C7AA75C75553977FA20292AF8A
:10003E00759100A2AF9202C2AF75C7AA75C755439C
:10004E009740A20292AFE596447FFFEF7003020144
:10005E001A80F322759100A2AF9202C2AF75C7AAA1
:10006E0075C755439720A20292AFE59644DFFFEF86
:10007E0064DF600302011A80F122759100A2AF9233
:10008E0002C2AF75C7AA75C755439710A20292AFA9
:10009E00E59644EFFFEF64EF707280F422759100E5
:1000AE00A2AF9202C2AF75C7AA75C755439780A279
:1000BE000292AF759100A2AF9202C2AF75C7AA7538
:1000CE00C755439740A20292AFE59644F7FFEF64FF
:1000DE00F7703980F422759100A2AF9202C2AF750B
:1000EE00C7AA75C755439780A20292AF759100A219
:1000FE00AF9202C2AF75C7AA75C7555397BFA2027A
:0D010E0092AFE59644BFFFEF64BF60F6229C
:02039B008F12BF
:10039D00C200759100E51212043603BA0003BE02C5
:1003AD0003D60303EE0403F205000003F4D200802C
:1003BD0036759100A2AF9202C2AF75C7AA75C75527
:1003CD005397DFA20292AF801E759100A2AF9202E9
:1003DD00C2AF75C7AA75C7555397EFA20292AF80EA
:1003ED0006D2008002D200300018759100A2AF92A3
:1003FD0002C2AF75C7AA75C75553973FA20292AFF8
:02040D00C2002B
:01040F0022CA
:0202DC008F137E
:1002DE00C201759100A2AF9202C2AFE513120436AD
:1002EE0003010003050203330303610403650500E4
:1002FE00000367D2018062759100A2AF9202C2AF75
:10030E0075C7AA75C7555396FBA20292AF75910099
:10031E00A2AF9202C2AF75C7AA75C7555396FDA27A
:10032E000292AF8034759100A2AF9202C2AF75C730
:10033E00AA75C755439604A20292AF759100A2AF5B
:10034E009202C2AF75C7AA75C7555396FDA2029207
:10035E00AF8006D2018002D20130012C759100A22D
:10036E00AF9202C2AF75C7AA75C7555396FBA202CC
:10037E0092AF759100A2AF9202C2AF75C7AA75C7B0
:0C038E0055439602A20292AFA20292AF69
:01039A002240
:0300000002045C9B
:10045C00787FE4F6D8FD9000007FFF7E03E4F0A3E4
:0A046C00DFFCDEFA758120020410A7
:10043600D083D082F8E4937012740193700DA3A355
:1004460093F8740193F5828883E473740293686069
:06045600EFA3A3A380DF69
:00000001FF
