:100FBC00E4F515F5167F06120B60E4F59153B3FEBC
:100FCC0043B401F59143B10153B2FE75910243A1B3
:100FDC000875910243A104F59175910243A1027524
:100FEC00910243A101F591751B02751F80751E2599
:100FFC00F51DF51CFF7E367D6E7C011206D0E4F5E6
:10100C0091439C01D2AF3002FDC202AD437F01126D
:10101C000057E4F515F5160516E51670020515B41E
:10102C0020F5E515B44EF07DAB7F011200577DCC59
:07103C007F0112005780CF75
:01104300228A
:100B6000E4F591EF24F9600C14600E2402700D7509
:100B7000A638800875A630800375A630E4F591A2EA
:100B8000AF9205C2AF75C7AA75C755439F01A205AD
:100B900092AFF5A775AF04F591A2AF9205C2AF75FC
:100BA000C7AA75C75543A401A20592AFAEAE05A66C
:100BB000F591A2AF9205C2AF75C7AA75C75543A4F8
:100BC00001A20592AFADAEF591A2AF9205C2AF758D
:100BD000C7AA75C755539FFEA20592AFEF24F870C0
:100BE00023EE25E0FFE433FEED54017C002FFFEC03
:100BF0003EFE74F12FFF74FF3EFEEF5401FDEEC385
:100C000013EF13FE75C7AA75C7558E8475C7AA75ED
:100C1000C7558D85E4F591A2AF9205C2AF75C7AAFD
:0D0C200075C755539FFEA20592AF5387EF95
:010C2D0022A4
:100C2E00EF24FE603E146046146064147003020CE0
:100C3E00C824056003020CF27F02120A5F7F0212C3
:100C4E000E6EE4FF120A5FE4FF120E6EE4F591A23F
:100C5E00AF9205C2AF75C7AA75C7555397DFA205E8
:100C6E0092AF227F02120A5F7F02120E6E227F0364
:100C7E00120A5F7F03120E6EE4F591A2AF9205C2C7
:100C8E00AF75C7AA75C7555397DFA20592AF227FDE
:100C9E0002120A5F7F02120E6E7F04120A5F7F0439
:100CAE00120E6EE4F591A2AF9205C2AF75C7AA758A
:100CBE00C7555397DFA20592AF227F02120A5F7FBC
:100CCE0002120E6E7F05120A5F7F05120E6EE4F59C
:100CDE0091A2AF9205C2AF75C7AA75C7555397DFDC
:050CEE00A20592AF22F7
:100A5F00EF24FE604D14606E147003020AF61470DA
:100A6F0003020B2C24056003020B5FE4F591A2AF88
:100A7F009205C2AF75C7AA75C75553977FA2059246
:100A8F00AFF591A2AF9205C2AF75C7AA75C755430F
:100A9F009740A20592AFE596447F7003020B5F80EB
:100AAF00F522E4F591A2AF9205C2AF75C7AA75C73B
:100ABF0055439720A20592AFE59644DF64DF6003AC
:100ACF00020B5F80F322E4F591A2AF9205C2AF75DE
:100ADF00C7AA75C755439710A20592AFE59644EF85
:100AEF0064EF706C80F622E4F591A2AF9205C2AF6D
:100AFF0075C7AA75C755439780A20592AFF591A206
:100B0F00AF9205C2AF75C7AA75C755439740A205E7
:100B1F0092AFE59644F764F7703680F622E4F591CC
:100B2F00A2AF9205C2AF75C7AA75C755439780A2EA
:100B3F000592AFF591A2AF9205C2AF75C7AA75C75F
:100B4F00555397BFA20592AFE59644BF64BF60F8B7
:010B5F002273
:10104400C203E4F591EF24FE601114602614603BA2
:1010540014603C2405703AD2038036E4F591A2AFC3
:101064009205C2AF75C7AA75C7555397DFA20592FB
:10107400AF801EE4F591A2AF9205C2AF75C7AA7501
:10108400C7555397EFA20592AF8006D2038002D2D0
:1010940003300318E4F591A2AF9205C2AF75C7AA55
:0C10A40075C75553973FA20592AFC203D9
:0110B000221D
:100E6E00C204E4F591A2AF9205C2AFEF24FE601169
:100E7E0014603B14606514606624057064D20480AF
:100E8E0060E4F591A2AF9205C2AF75C7AA75C755BA
:100E9E005396FBA20592AFF591A2AF9205C2AF7524
:100EAE00C7AA75C7555396FDA20592AF8033E4F5D8
:100EBE0091A2AF9205C2AF75C7AA75C755439604E6
:100ECE00A20592AFF591A2AF9205C2AF75C7AA75F2
:100EDE00C7555396FDA20592AF8006D2048002D26A
:100EEE000430042BE4F591A2AF9205C2AF75C7AAE8
:100EFE0075C7555396FBA20592AFF591A2AF920519
:100F0E00C2AF75C7AA75C755439602A20592AFA286
:030F1E000592AF8A
:010F210022AD
:10007E00C100C10164EC000000000000000000009F
:10008E000000000000000000000000000000000062
:10009E000000000000000000000000000000000052
:1000AE000000000000000000000000000000000042
:1000BE000000000000000000000000000000000032
:04056E000000000089
:0300230002003F99
:10003F00C091309808D2018599425398FE309905A6
:08004F00200002C299D0913299
:03007B000200265A
:10002600C09130F80853F8FE859A43D20230F9069B
:0900360020000353F8FDD09132C3
:1006D0008F1A8E198D188C17E4F591E51B1460485C
:1006E0001470030207A324026003020817759850D0
:1006F000438920438780E4F591438E10F59153C4DC
:10070000DF7B10FAF9F8AF1AAE19AD18AC17120565
:10071000FEAB1FAA1EA91DA81C1205FEEFF404F5CE
:100720008D43884043A8102275985043878053C456
:10073000F8E4F59143C4207B10FAF9F8AF1AAE192A
:10074000AD18AC171205FEAB1FAA1EA91DA81C12DE
:1007500005FEC3E49FFFE49EFE74019DFDE49CFC46
:1007600078081206908FC6E47B10FAF9F8AF1AAE3B
:1007700019AD18AC171205FEAB1FAA1EA91DA81CA7
:100780001205FEC3E49FFFE49EFE74019DFDE49C00
:10079000FCEFE48FC5F59143C408F591539CFD43EC
:1007A000A8102275F85053C4F8E47B10FAF9F8AF9A
:1007B0001AAE19AD18AC171205FEAB1FAA1EA91D63
:1007C000A81C1205FEC3E49FFFE49EFE74019DFD7C
:1007D000E49CFC78081206908FC6E47B10FAF9F8C6
:1007E000AF1AAE19AD18AC171205FEAB1FAA1EA9A1
:1007F0001DA81C1205FEC3E49FFFE49EFE74019D2C
:10080000FDE49CFCEFE48FC5F591539CFDF591430D
:08081000C408F591439C01228C
:10000300E4F591EF14600C0470103098FDAE99C2C2
:0C00130098800730F8FDAE9AC2F8AF06E6
:01001F0022BE
:10005700E4F591EF1460060470058D99228D9A22BC
:080CF3008F308E2F8D2E8C2D09
:100CFB00E4F591F591538EF7F5915389F043890102
:100D0B007B407A42790FF8AF30AE2FAD2EAC2D125F
:100D1B0005FEA804A905AA06AB07AE33AF34E4FC65
:100D2B00FD120573E47B0CFAF9F81205FEC374FF90
:100D3B009FFF74FF9EFEE49DFDE49CFCEFE48F356A
:100D4B007B407A42790FF8AF30AE2FAD2EAC2D121F
:100D5B0005FEA804A905AA06AB07AE33AF34E4FC25
:100D6B00FD120573E47B0CFAF9F81205FEC374FF50
:100D7B009FFF74FF9EFEE49DFDE49CFC7808120629
:100D8B0090E5324531601B85358A8F8C4388103056
:100D9B008DFD5388DF5388EFE53215327002153124
:070DAB0080DFE4F58AF58CFE
:010DB200221E
:080DB3008F398E388D378C3624
:100DBB00E4F591F591538EEFF59153890F4389101B
:100DCB007B407A42790FF8AF39AE38AD37AC36127B
:100DDB0005FEA804A905AA06AB07AE3CAF3DE4FC93
:100DEB00FD120573E47B0CFAF9F81205FEC374FFD0
:100DFB009FFF74FF9EFEE49DFDE49CFCEFE48F3EA1
:100E0B007B407A42790FF8AF39AE38AD37AC36123A
:100E1B0005FEA804A905AA06AB07AE3CAF3DE4FC52
:100E2B00FD120573E47B0CFAF9F81205FEC374FF8F
:100E3B009FFF74FF9EFEE49DFDE49CFC7808120668
:100E4B0090E53B453A601B853E8B8F8D4388403048
:100E5B008FFD53887F5388BFE53B153B7002153AD6
:020E6B0080DF26
:010E6D002262
:080818008F0B8E0A8D098C087C
:10082000E4F591E50D850CF01206A3084F000108D0
:10083000540004085C001008640020086C004008A4
:10084000740080087C0100088402000000088A53BC
:10085000C98F803653C98F43C910802E53C98F4327
:10086000C920802653C98F43C930801E53C98F4386
:10087000C940801653C98F43C950800E53C98F4356
:10088000C960800653C98F43C97053C8FEE4F5910F
:1008900043C980F59143C9047B407A42790FF8AF90
:1008A0000BAE0AAD09AC081205FEAB13AA12A911D2
:1008B000A810120573C006C007AE0CAF0DAB07AA97
:1008C00006E4F9F8D007D0061205FEC3E49FFFE462
:1008D0009EFE74019DFDE49CFCEFE48F147B407A46
:1008E00042790FF8AF0BAE0AAD09AC081205FEABAA
:1008F00013AA12A911A810120573C006C007AE0CE6
:10090000AF0DAB07AA06E4F9F8D007D0061205FE32
:10091000C3E49FFFE49EFE74019DFDE49CFC780807
:10092000120690E50F450E601B8514CC8FCD43C891
:100930000430CFFD53C87F53C8FBE50F150F70027D
:04094000150E80DF31
:010944002290
:080945008F248E238D228C21EA
:10094D00E4F591E52524FE602124FE602524FC605C
:10095D002924F8602D24F0603124E0603524C06036
:10096D0039247F703B53C4F8803653C4F843C40117
:10097D00802E53C4F843C402802653C4F843C403E5
:10098D00801E53C4F843C404801653C4F843C405F1
:10099D00800E53C4F843C406800653C4F843C407FD
:1009AD007B407A42790F7800AF24AE23AD22AC2183
:1009BD001205FEAB2BAA2AA929A828120573C00778
:1009CD00AF25AB07E4FAF9F8D0071205FEC3E49F93
:1009DD00FFE49EFE74019DFDE49CFCEFE48F2C7BF7
:1009ED00407A42790FF8AF24AE23AD22AC21120527
:1009FD00FEAB2BAA2AA929A828120573C007AF257B
:100A0D00AB07E4FAF9F8D0071205FEC3E49FFFE443
:100A1D009EFE74019DFDE49CFC7808120690E5276E
:100A2D004526602DE4F59153C4EF852CC58FC6F591
:100A3D009143C408E5C444EF64EF60F8E4F59153C5
:100A4D00C4EFF59153C4F7E52715277002152680DD
:010A5D00CDCB
:010A5E002275
:03000000020F22CA
:100F2200787FE4F6D8FD9000007FFF7E03E4F0A313
:0A0F3200DFFCDEFA758143020F7741
:100F3C00020FBCE493A3F8E493A34003F68001F200
:100F4C0008DFF48029E493A3F85407240CC8C333B6
:100F5C00C4540F4420C8834004F456800146F6DF85
:100F6C00E4800B010204081020408090007EE47E97
:100F7C00019360BCA3FF543F30E509541FFEE4937A
:100F8C00A360010ECF54C025E060A840B8E493A341
:100F9C00FAE493A3F8E493A3C8C582C8CAC583CA6C
:100FAC00F0A3C8C582C8CAC583CADFE9DEE780BE24
:010572000088
:10057300E88FF0A4CC8BF0A42CFCE98EF0A42CFC27
:100583008AF0EDA42CFCEA8EF0A4CDA8F08BF0A4A5
:100593002DCC3825F0FDE98FF0A42CCD35F0FCEB04
:1005A3008EF0A4FEA9F0EB8FF0A4CFC5F02ECD39C9
:0F05B300FEE43CFCEAA42DCE35F0FDE43CFC2236
:1005C20075F008758200EF2FFFEE33FECD33CDCCF0
:1005D20033CCC58233C5829BED9AEC99E582984073
:1005E2000CF582EE9BFEED9AFDEC99FC0FD5F0D650
:1005F200E4CEFBE4CDFAE4CCF9A88222B800C1B97A
:100602000059BA002DEC8BF084CFCECDFCE5F0CBB7
:10061200F97818EF2FFFEE33FEED33FDEC33FCEBF0
:1006220033FB10D703994004EB99FB0FD8E5E4F9AB
:10063200FA227818EF2FFFEE33FEED33FDEC33FC98
:10064200C933C910D7059BE99A4007EC9BFCE99A8C
:10065200F90FD8E0E4C9FAE4CCFB2275F010EF2FD1
:10066200FFEE33FEED33FDCC33CCC833C810D707D1
:100672009BEC9AE899400AED9BFDEC9AFCE899F80C
:0E0682000FD5F0DAE4CDFBE4CCFAE4C8F9229F
:10069000E8600FECC313FCED13FDEE13FEEF13FF48
:0306A000D8F1226C
:1006A300D083D082F8E4937012740193700DA3A3E6
:1006B30093F8740193F5828883E473740293B5F01D
:0D06C300067403936860E9A3A3A3A380D885
:00000001FF
