:03001B00020003DD
:0F000300C091758DD1758B1FC28DB2B5D0913262
:1004200075910053ACDF43AD2075910053890F43A4
:100430008910759100438E10758DD1758B1F43A85F
:0904400008D2AF43884080FE227F
:02012B008F083B
:10012D00759100E508120449014206014707014C8B
:10013D00080000014F75A638800875A6308003753C
:10014D00A630759100A2AF9202C2AF75C7AA75C74E
:10015D0055439F01A20292AF75A70075AF0475912B
:10016D0000A2AF9202C2AF75C7AA75C75543A401CD
:10017D00A20292AF85AE0905A6759100A2AF9202BB
:10018D00C2AF75C7AA75C75543A401A20292AF8528
:10019D00AE0A759100A2AF9202C2AF75C7AA75C71C
:1001AD0055539FFEA20292AFE50812044901C10802
:1001BD00000001F9AF097E00EF25E0FFEE33FEE50B
:1001CD000A5401FD7C00EF2DF50CEE3CF50B74F19E
:1001DD00250CF50C74FF350BF50BAF0CEF5401F539
:1001ED000AE50BC313FEE50C13FF8F0975C7AA753E
:1001FD00C75585098475C7AA75C755850A85759133
:10020D0000A2AF9202C2AF75C7AA75C755539FFE24
:07021D00A20292AF5387EF2C
:0102240022B7
:100225008F10E510120449023F00026A02027503AD
:1002350002960402C105000002EB7F0212001E7F38
:10024500021202EC7F0012001E7F001202EC759173
:1002550000A2AF9202C2AF75C7AA75C7555397DF03
:10026500A20292AF227F0212001E7F021202EC222E
:100275007F0312001E7F031202EC759100A2AF925C
:1002850002C2AF75C7AA75C7555397DFA20292AFD1
:10029500227F0212001E7F021202EC7F0412001E52
:1002A5007F041202EC759100A2AF9202C2AF75C72E
:1002B500AA75C7555397DFA20292AF227F0212009B
:1002C5001E7F021202EC7F0512001E7F051202EC52
:1002D500759100A2AF9202C2AF75C7AA75C75553F3
:0702E50097DFA20292AF2295
:10001E008F11E51112044900380000720200980396
:10002E0000BB0400F4050000012A759100A2AF92F6
:10003E0002C2AF75C7AA75C75553977FA20292AF7A
:10004E00759100A2AF9202C2AF75C7AA75C755438C
:10005E009740A20292AFE596447FFFEF7003020134
:10006E002A80F322759100A2AF9202C2AF75C7AA81
:10007E0075C755439720A20292AFE59644DFFFEF76
:10008E0064DF600302012A80F122759100A2AF9213
:10009E0002C2AF75C7AA75C755439710A20292AF99
:1000AE00E59644EFFFEF64EF707280F422759100D5
:1000BE00A2AF9202C2AF75C7AA75C755439780A269
:1000CE000292AF759100A2AF9202C2AF75C7AA7528
:1000DE00C755439740A20292AFE59644F7FFEF64EF
:1000EE00F7703980F422759100A2AF9202C2AF75FB
:1000FE00C7AA75C755439780A20292AF759100A209
:10010E00AF9202C2AF75C7AA75C7555397BFA20269
:0D011E0092AFE59644BFFFEF64BF60F6228C
:0203AB008F12AF
:1003AD00C200759100E51212044903CA0003CE0282
:1003BD0003E60303FE0404020500000404D20080DA
:1003CD0036759100A2AF9202C2AF75C7AA75C75517
:1003DD005397DFA20292AF801E759100A2AF9202D9
:1003ED00C2AF75C7AA75C7555397EFA20292AF80DA
:1003FD0006D2008002D200300018759100A2AF9293
:10040D0002C2AF75C7AA75C75553973FA20292AFE7
:02041D00C2001B
:01041F0022BA
:0202EC008F136E
:1002EE00C201759100A2AF9202C2AFE5131204498A
:1002FE000311000315020343030371040375050084
:10030E00000377D2018062759100A2AF9202C2AF54
:10031E0075C7AA75C7555396FBA20292AF75910089
:10032E00A2AF9202C2AF75C7AA75C7555396FDA26A
:10033E000292AF8034759100A2AF9202C2AF75C720
:10034E00AA75C755439604A20292AF759100A2AF4B
:10035E009202C2AF75C7AA75C7555396FDA20292F7
:10036E00AF8006D2018002D20130012C759100A21D
:10037E00AF9202C2AF75C7AA75C7555396FBA202BC
:10038E0092AF759100A2AF9202C2AF75C7AA75C7A0
:0C039E0055439602A20292AFA20292AF59
:0103AA002230
:0300000002046F88
:10046F00787FE4F6D8FD9000007FFF7E03E4F0A3D1
:0A047F00DFFCDEFA75812002042084
:10044900D083D082F8E4937012740193700DA3A342
:1004590093F8740193F5828883E473740293686056
:06046900EFA3A3A380DF56
:00000001FF
