:03000B00020404E8
:0F040400C091758CD1758A1FC28DB2B5D091325F
:1003C300E4F59153ACDF43AD20F5915389F04389B4
:1003D30001F591438E08758CD1758A1F43A802D20B
:0703E300AF43881080FE22E9
:10010F00E4F591EF24F9600C14600E2402700D7564
:10011F00A638800875A630800375A630E4F591A245
:10012F00AF9202C2AF75C7AA75C755439F01A2020E
:10013F0092AFF5A775AF04F591A2AF9202C2AF755A
:10014F00C7AA75C75543A401A20292AFAEAE05A6CA
:10015F00F591A2AF9202C2AF75C7AA75C75543A456
:10016F0001A20292AFADAEF591A2AF9202C2AF75EE
:10017F00C7AA75C755539FFEA20292AFEF24F8701E
:10018F0023EE25E0FFE433FEED54017C002FFFEC5E
:10019F003EFE74F12FFF74FF3EFEEF5401FDEEC3E0
:1001AF0013EF13FE75C7AA75C7558E8475C7AA7549
:1001BF00C7558D85E4F591A2AF9202C2AF75C7AA5C
:0D01CF0075C755539FFEA20292AF5387EFF4
:0101DC002200
:1001DD00EF24FE603E146046146064147003020246
:1001ED0077240560030202A17F0212000E7F021226
:1001FD0002A2E4FF12000EE4FF1202A2E4F591A2A6
:10020D00AF9202C2AF75C7AA75C7555397DFA20249
:10021D0092AF227F0212000E7F021202A2227F03F2
:10022D0012000E7F031202A2E4F591A2AF9202C258
:10023D00AF75C7AA75C7555397DFA20292AF227F3C
:10024D000212000E7F021202A27F0412000E7F0422
:10025D001202A2E4F591A2AF9202C2AF75C7AA75C0
:10026D00C7555397DFA20292AF227F0212000E7F75
:10027D00021202A27F0512000E7F051202A2E4F502
:10028D0091A2AF9202C2AF75C7AA75C7555397DF3A
:05029D00A20292AF2255
:10000E00EF24FE604D14606E1470030200A5147090
:10001E00030200DB2405600302010EE4F591A2AF9A
:10002E009202C2AF75C7AA75C75553977FA20292A7
:10003E00AFF591A2AF9202C2AF75C7AA75C755436D
:10004E009740A20292AFE596447F700302010E80A4
:10005E00F522E4F591A2AF9202C2AF75C7AA75C799
:10006E0055439720A20292AFE59644DF64DF60030A
:10007E0002010E80F322E4F591A2AF9202C2AF7597
:10008E00C7AA75C755439710A20292AFE59644EFE3
:10009E0064EF706C80F622E4F591A2AF9202C2AFCB
:1000AE0075C7AA75C755439780A20292AFF591A264
:1000BE00AF9202C2AF75C7AA75C755439740A20249
:1000CE0092AFE59644F764F7703680F622E4F59128
:1000DE00A2AF9202C2AF75C7AA75C755439780A249
:1000EE000292AFF591A2AF9202C2AF75C7AA75C7C1
:1000FE00555397BFA20292AFE59644BF64BF60F816
:01010E0022CE
:10035600C200E4F591EF24FE601114602614603BA0
:1003660014603C2405703AD2008036E4F591A2AFC1
:100376009202C2AF75C7AA75C7555397DFA20292FC
:10038600AF801EE4F591A2AF9202C2AF75C7AA75FF
:10039600C7555397EFA20292AF8006D2008002D2D1
:1003A60000300018E4F591A2AF9202C2AF75C7AA59
:0C03B60075C75553973FA20292AFC200DA
:0103C2002218
:1002A200C201E4F591A2AF9202C2AFEF24FE601147
:1002B20014603B14606514606624057064D201808A
:1002C20060E4F591A2AF9202C2AF75C7AA75C75595
:1002D2005396FBA20292AFF591A2AF9202C2AF7502
:1002E200C7AA75C7555396FDA20292AF8033E4F5B3
:1002F20091A2AF9202C2AF75C7AA75C755439604C1
:10030200A20292AFF591A2AF9202C2AF75C7AA75CF
:10031200C7555396FDA20292AF8006D2018002D247
:100322000130012BE4F591A2AF9202C2AF75C7AAC8
:1003320075C7555396FBA20292AFF591A2AF9202F6
:10034200C2AF75C7AA75C755439602A20292AFA261
:030352000292AF65
:010355002285
:030000000203EA0E
:1003EA00787FE4F6D8FD9000007FFF7E03E4F0A357
:0A03FA00DFFCDEFA7581200203C368
:00000001FF
